:1000000058C000000C94C5080C94EC087AC000009D
:1000100078C0000076C0000074C000000C94570C3B
:1000200070C000006EC000006CC000006AC000001C
:1000300068C0000066C0000064C0000062C000002C
:100040000C9413095EC000000C94730B0C94A50B68
:1000500058C0000056C0000054C0000052C000004C
:1000600050C000004EC00000000000080002010067
:100070000003040700000000000000000102040863
:100080001020408001020408102001020408102002
:10009000040404040404040402020202020203032E
:1000A0000303030300000000250028002B000200CA
:1000B000CA0B11241FBECFEFD8E0DEBFCDBF11E0C9
:1000C000A0E0B1E0E2E2F0E202C005900D92AA35B4
:1000D000B107D9F723E0AAE5B1E001C01D92AA3A21
:1000E000B207E1F710E0C9E5D0E004C02197FE01B6
:1000F0000E940010C835D107C9F70E945B0D0C940F
:100100000F107ECFE0916E01F0916F01808191819F
:10011000A281B381892B8A2B8B2B29F03696F09301
:100120006F01E0936E01089587309105C0F4845605
:100130009F4FFC010C940010A300A900B200D20054
:10014000C500D800F1006E30710548F481E090E000
:100150000895FB01E65CFE4F6E307105F0F08FEF05
:100160009FEF08956730710548F46530710518F404
:1001700063307105A1F784E090E00895693071055E
:10018000D1F36B307105B9F3EACF615071096D306D
:10019000710528F7635D7E4FFB018081082E000CFE
:1001A000990B089563307105D1F685E090E00895CC
:1001B0006E307105A0F660527F4FFB010C94001069
:1001C000F100EE00EE00EE00EE00EE00EE00EE00BC
:1001D000F100AF00AF00F100EE00EE0086E090E02D
:1001E000089587E090E00895E0916E01F0916F012D
:1001F00040815181628173818481958133D3892BC0
:1002000019F081E090E008957DDFE0916E01F091BA
:100210006F0180819181A281B381892B8A2B8B2BE5
:1002200019F790E080E008951F93CF93DF931F921A
:10023000CDB7DEB7182F198241E050E060E070E0E2
:10024000CE0101960FD3892BC1F4198341E050E010
:1002500060E070E0CE01019605D3892B71F481E056
:10026000CED331E020E0892B09F430E0832F922FA8
:100270000F90DF91CF911F91089581E090E0F8CF2A
:10028000CF93DF931F92CDB7DEB78091600190913D
:100290006101892BF9F441E050E060E070E0CE01AB
:1002A000019642D3698170E07093630160936201AB
:1002B0006A30710599F481E090E090936D0180932C
:1002C0006C0188E090E0B0DF892B21F010920101F1
:1002D000109200010F90DF91CF91089580916001FD
:1002E0009091610121DF90936101809360010196FB
:1002F00089F7ECCF8F929F92AF92BF92CF92EF92FD
:10030000FF920F931F93BCDF809160019091610178
:100310000197D9F444E050E060E070E088E691E0B5
:1003200003D36091620170916301809160019091AB
:100330006101FADE9093610180936001019629F4D6
:10034000109201011092000161C1809160019091B1
:1003500061010297B1F444E050E060E070E084E6AF
:1003600091E0E2D26091620170916301809160013D
:1003700090916101D9DE90936101809360010196B3
:10038000F9F28091600190916101049709F066C0D3
:1003900080915E0190915F01892B89F50091640144
:1003A00010916501209166013091670140916201D1
:1003B00050916301609168017091690180916A01B7
:1003C00090916B01BEE6EB2EB1E0FB2EADD3892BF5
:1003D000A9F5E0916E01F0916F0184819581909370
:1003E0005F0180935E0180819181A281B3818093BE
:1003F0005A0190935B01A0935C01B0935D01409121
:100400005A0150915B0160915C0170915D01809196
:100410005E0190915F0188D275DEE0916E01F091EE
:100420006F0180819181A281B3810097A105B105FF
:1004300009F06CC010925F0110925E016091620140
:100440007091630180916001909161016DDE9093E4
:10045000610180936001019609F472CF809160017F
:1004600090916101039789F50091640110916501F4
:1004700020916601309167014091620150916301C2
:10048000609168017091690180916A0190916B019E
:10049000812C912C5401CC24C394AEE6EA2EA1E029
:1004A000FA2EF2D3892B09F446C060916201709153
:1004B0006301809160019091610136DE909361014A
:1004C00080936001019609F43BCF80916001909187
:1004D0006101059709F055C0E0916201F091630157
:1004E000EE30F10508F02CCFE858FD4F0C940010C9
:1004F000A902100329038C03380347035E03B102EA
:10050000F402A001A0017503A3031F032481358118
:1005100030935F0120935E016ACFF4DDE0916E01BC
:10052000F0916F0180819181A281B381892B8A2B07
:100530008B2B09F4BACFE0916E01F0916F014081ED
:10054000518162817381848195818CD1892B29F3BA
:10055000F7CE7FD2892B09F0F3CEE6D4892B09F0B0
:10056000EFCE609162017091630180916001909182
:100570006101DADD9093610180936001019609F4D5
:10058000DFCE8091600190916101069709F0FAC079
:10059000009164011091650120916601309167011D
:1005A000409162015091630160916801709169010D
:1005B00080916A0190916B01812C912C5401E2E0B1
:1005C000CE2EFEE6EF2EF1E0FF2E9AD3892B09F016
:1005D000C9C00ADE8130910509F4B2CE892B09F435
:1005E000C1C082E090E00EC0609168017091690125
:1005F00080916A0190916B0122D2892B09F4B1CFCD
:1006000083E090E011DE892B09F09ACE1F910F91C3
:10061000FF90EF90CF90BF90AF909F908F900895F4
:10062000609168017091690180916A0190916B01FC
:100630003FD2892B09F495CF84E090E0E3CF60911D
:1006400068017091690180916A0190916B014AD2B1
:10065000F0CF609168017091690180916A01909179
:100660006B014AD2892B09F47CCF85E090E0CACF98
:10067000609168017091690180916A0190916B01AC
:1006800049D4892B09F46DCF88E090E0BBCF20914D
:10069000640130916501409166015091670160915C
:1006A00068017091690180916A0190916B013FD45A
:1006B000892B09F456CF89E090E0A4CF2091640102
:1006C0003091650140916601509167016091680128
:1006D0007091690180916A0190916B0132D4892BEC
:1006E00009F43FCF8AE090E08DCF209164013091F2
:1006F00065014091660150916701609168017091B8
:10070000690180916A0190916B01F0D2892B09F403
:1007100028CF87E090E076CF209164013091650189
:100720004091660150916701609168017091690183
:1007300080916A0190916B01BED2892B09F411CF8F
:1007400086E090E05FCF60916801709169018091CF
:100750006A0190916B01DED1892B09F402CF8BE005
:1007600090E050CF609162017091630180916001CF
:1007700090916101D9DC90936101809360010196B1
:1007800009F4DECD8091600190916101079709F035
:100790003DCF8091620190916301099709F436CFB2
:1007A00081E02DD1892B09F0CBCD109261011092FF
:1007B00060012CCF9FDD8091000190910101892B78
:1007C00071F081E090E020916C0130916D01232B5C
:1007D00011F490E080E0919581959109089581E070
:1007E00090E0089566E870E08AE791E039D48823C4
:1007F000C9F080917A0190917B0139D49093750171
:10080000809374019C012F5F3F4F309379012093B7
:1008100078011092770110927601FC01108290E02D
:1008200080E0089581E090E00895609176017091F4
:1008300077016F5F7F4F80917A0190917B011AD48D
:10084000811103C083E090E00895CCDF892BD1F7BC
:1008500090E080E0089502D4813009F4C3CF81E0B4
:1008600090E008954F925F926F927F92AF92BF9205
:10087000CF92DF92EF92FF920F931F93CF93DF936C
:100880006C012A013B0180E8A82EB12C41145104CF
:100890006104710419F490E080E035C08091760124
:1008A000909177018038910559F1E0907601F090B0
:1008B0007701E501CE19DF09CE01B0E0A0E0841593
:1008C0009505A605B70570F500917801109179019D
:1008D000AE01B601C8010E9406104C1A5D0A6108FB
:1008E0007108EC0EFD1EF0927701E0927601CC0EBD
:1008F000DD1EC00FD11FD0937901C0937801C6CF00
:1009000094DF009791F2DF91CF911F910F91FF90AB
:10091000EF90DF90CF90BF90AF907F906F905F90FF
:100920004F900895E201D0CF8F929F92AF92BF92E5
:10093000CF92DF92EF92FF920F931F93CF93DF93AB
:100940008C016A017B01812C912C5401C114D104CA
:10095000E104F104B1F1C0917201D09173012097CB
:1009600009F442C0CE01B0E0A0E08C159D05AE05B3
:10097000BF0508F0E6016091700170917101AE0150
:10098000C801880D991D0E940610809172019091F6
:1009900073018C1B9D0B9093730180937201809166
:1009A0007001909171018C0F9D1F90937101809344
:1009B0007001CE01B0E0A0E0C81AD90AEA0AFB0A29
:1009C00079F490E080E0DF91CF911F910F91FF903B
:1009D000EF90DF90CF90BF90AF909F908F90089551
:1009E000880E991EAA1EBB1E62E771E080E791E0A7
:1009F000E2D2019609F0AACF81E090E0E4CFE09145
:100A00007401F0917501882349F082E080830DDF45
:100A10008330910511F090E080E0089581E0F6CFF9
:100A20009AD2019749F417DF31E020E0892B09F4CD
:100A300030E0832F922F089581E090E00895672B96
:100A4000682B692B19F490E080E0089582E090E033
:100A50000895CF93DF931F92CDB7DEB788E08983E7
:100A600041E050E060E070E0CE010196FBDE892BB2
:100A7000E1F481E0898341E050E060E070E0CE0184
:100A80000196F0DE892B89F484E0898341E050E00F
:100A900060E070E0CE010196E5DE892B31F490E054
:100AA00080E00F90DF91CF91089583E090E0F9CF3F
:100AB000109298031092990310929A0310929B033C
:100AC000672B682B692B59F4609102017091030127
:100AD0008AED91E00E94950E90E080E0089582E01A
:100AE00090E00895672B682B692B19F082E090E065
:100AF000089590E080E00895672B682B692B39F406
:100B00008CE993E00E94880D90E080E0089582E0F7
:100B100090E00895672B682B692B19F082E090E034
:100B2000089590E080E00895EF92FF92F70111821E
:100B30001082672B682B692B09F0A3C04330510545
:100B400009F464C081E090E04830510509F05BC0D1
:100B50008091840190918501892B09F04EC084E039
:100B600090E0A0E0B0E08093920190939301A09375
:100B70009401B093950129E031E0309397012093DF
:100B800096018093980190939901A0939A01B09354
:100B90009B012DE031E030939D0120939C018093D7
:100BA0009E0190939F01A093A001B093A10129E21F
:100BB00031E03093A3012093A2018093A40190938C
:100BC000A501A093A601B093A70185E291E09093BF
:100BD000A9018093A8011092AA011092AB01109272
:100BE000AC011092AD011092AF011092AE0181E004
:100BF00090E0909385018093840182E991E0918354
:100C0000808390E080E0FF90EF90089580918201D2
:100C100090918301892B91F584E090E0A0E0B0E011
:100C20008093C8019093C901A093CA01B093CB01EE
:100C300022EA33E03093CD012093CC018093CE01A2
:100C40009093CF01A093D001B093D10186EA93E0B5
:100C50009093D3018093D2011092D4011092D501C8
:100C60001092D6011092D7011092D9011092D8019A
:100C700081E090E0909383018093820188EC91E081
:100C8000BECF82E090E0BFCFEF92FF92CF93DF9391
:100C9000CDB7DEB7F70111821082672B682B692B65
:100CA00039F481E090E0DF91CF91FF90EF900895CB
:100CB00082E090E0F8CF672B682B692B89F4213014
:100CC00031054105510579F42CE933E048E953E059
:100CD00066EA73E082EA93E029D790E080E0089525
:100CE00082E090E0089581E090E00895672B682B02
:100CF000692B19F490E080E0089582E090E0089577
:100D00008F929F92AF92BF92CF92EF92FF92CF932A
:100D1000DF9300D000D01F92CDB7DEB7C9828A82A0
:100D20009B82AC82BD82F70111821082672B682BF7
:100D3000692B09F0ECC04230510509F4A4C04330DE
:100D4000510509F45CC081E090E04130510599F50E
:100D50008091800190918101892B11F584E090E0D0
:100D6000A0E0B0E08093B0019093B101A093B201F4
:100D7000B093B30188E993E09093B5018093B401F7
:100D80001092B6011092B7011092B8011092B901F9
:100D90001092BB011092BA015093810140938001DF
:100DA00041E050E060E070E0CE0101965BDD892B10
:100DB00089F083E090E00F900F900F900F900F90CC
:100DC000DF91CF91FF90EF90CF90BF90AF909F9029
:100DD0008F9008958981893041F080EB91E0F7018F
:100DE0009183808390E080E0E6CF44E050E060E0D3
:100DF00070E0CE01029636DD892B79F3DACF80914F
:100E00007E0190917F01892B21F584E090E0A0E0A4
:100E1000B0E08093BC019093BD01A093BE01B0935C
:100E2000BF0188E993E09093C1018093C0011092C3
:100E3000C2011092C3011092C4011092C501109218
:100E4000C7011092C60181E090E090937F018093EA
:100E50007E0141E050E060E070E0CE01019602DDED
:100E6000892B09F0A6CF8981893019F08CEB91E0AC
:100E7000B6CF44E050E060E070E0CE010296F2DCD4
:100E8000892BA1F396CF80917C0190917D01892BD4
:100E900021F584E090E0A0E0B0E08093860190939B
:100EA0008701A0938801B093890188E993E090932A
:100EB0008B0180938A0110928C0110928D01109207
:100EC0008E0110928F01109291011092900181E099
:100ED00090E090937D0180937C0141E050E060E0E0
:100EE00070E0CE010196BEDC892B09F062CF8981CA
:100EF000893019F086E891E072CF44E050E060E07C
:100F000070E0CE010296AEDC892BA1F352CF82E0D5
:100F100090E051CF672B682B692B19F490E080E0AB
:100F2000089582E090E0089590E080E00895672BB6
:100F3000682B692B19F481E090E0089582E090E03D
:100F40000895672B682B692B19F481E090E00895D0
:100F500082E090E008954ED59C01909362028093C8
:100F6000610281E090E02F3F3F4F11F490E080E07C
:100F700008950097E9F0FC01CA01B0E0A0E06083A9
:100F800081839283A383B4839A01AD012B5F3F4F8A
:100F90004F4F5F4FBF0180916102909162026DD00F
:100FA00031E020E0019609F430E0832F922F08957C
:100FB00080E090E00895EF92FF920F931F93CF93FC
:100FC000DF9300D000D01F92CDB7DEB77C018B013C
:100FD00019821A821B821C8221E030E040E050E03E
:100FE000BE016B5F7F4F809161029091620288D059
:100FF000019671F490E080E00F900F900F900F90A9
:101000000F90DF91CF911F910F91FF90EF90089576
:1010100024E030E040E050E0BE016F5F7F4F809100
:101020006102909162026CD0019621F329813A818C
:101030004B815C816CED71E0809161029091620264
:101040005FD08CED91E0F7019183808389819A8153
:10105000F8019183808381E090E0CECF81E0089514
:1010600023E632E0FC013183208381E0089588E6A5
:1010700092E00895AB0161E07CCFAF92BF92CF9236
:10108000DF92EF92FF920F931F93CF93DF9300D0E5
:10109000CDB7DEB75C018B0169017A0190E080E099
:1010A000C114D104E104F10469F40F900F90DF91B1
:1010B000CF911F910F91FF90EF90DF90CF90BF9055
:1010C000AF9008959C2D8D2DC114D10421E0E2062E
:1010D000F10410F09FEF8FEF9E012F5F3F4F492FDC
:1010E000582FB801C501D2D48F3F9807F1F229815A
:1010F0003A81C21AD30AE108F108020F131FD0CFB8
:10110000AF92BF92CF92DF92EF92FF920F931F9315
:10111000CF93DF9300D0CDB7DEB75C018B016901BF
:101120007A0190E080E0C114D104E104F10469F493
:101130000F900F90DF91CF911F910F91FF90EF9043
:10114000DF90CF90BF90AF9008959C2D8D2DC1144E
:10115000D10421E0E206F10410F09FEF8FEF9E0131
:101160002F5F3F4F492F582FB801C5015DD48F3FE6
:101170009807F1F229813A81C21AD30AE108F108ED
:10118000020F131FD0CF089508951F920F920FB62C
:101190000F9211242F933F934F935F936F937F93FD
:1011A0008F939F93AF93BF93EF93FF93E0910401CD
:1011B000F09105010995FF91EF91BF91AF919F913A
:1011C0008F917F916F915F914F913F912F910F90F0
:1011D0000FBE0F901F9018951F920F920FB60F928F
:1011E00011242F933F934F935F936F937F938F932C
:1011F0009F93AF93BF93EF93FF93E0910601F0911C
:1012000007010995FF91EF91BF91AF919F918F9148
:101210007F916F915F914F913F912F910F900FBEF2
:101220000F901F9018951F920F920FB60F921124D6
:101230002F933F938F939F93AF93BF938091EA0235
:101240009091EB02A091EC02B091ED023091E90295
:1012500023E0230F2D3758F50196A11DB11D2093D2
:10126000E9028093EA029093EB02A093EC02B09320
:10127000ED028091EE029091EF02A091F002B09108
:10128000F1020196A11DB11D8093EE029093EF0231
:10129000A093F002B093F102BF91AF919F918F9113
:1012A0003F912F910F900FBE0F901F90189526E839
:1012B000230F0296A11DB11DD2CF3FB7F8948091A4
:1012C000EE029091EF02A091F002B091F10226B5EA
:1012D000A89B05C02F3F19F00196A11DB11D3FBF6E
:1012E000BA2FA92F982F8827BC01CD01620F711D3D
:1012F000811D911D42E0660F771F881F991F4A9537
:10130000D1F708958F929F92AF92BF92CF92DF92C2
:10131000EF92FF926B017C01D0DF4B015C01C114A5
:10132000D104E104F104D9F02EDFC7DF681979098F
:101330008A099B09683E73408105910580F321E08D
:10134000C21AD108E108F10888EE880E83E0981EE1
:10135000A11CB11CC114D104E104F10431F7FF90C8
:10136000EF90DF90CF90BF90AF909F908F900895B7
:10137000789484B5826084BD84B5816084BD85B570
:10138000826085BD85B5816085BDEEE6F0E0808137
:1013900081608083E1E8F0E0108280818260808358
:1013A000808181608083E0E8F0E0808181608083DB
:1013B000E1EBF0E0808184608083E0EBF0E080810D
:1013C00081608083EAE7F0E08081846080838081AF
:1013D0008260808380818160808380818068808357
:1013E0001092C1000895833081F028F4813099F083
:1013F0008230A9F008958730A9F08830C9F0843090
:10140000B1F4809180008F7D03C0809180008F7740
:1014100080938000089584B58F7784BD089584B546
:101420008F7DFBCF8091B0008F778093B0000895BF
:101430008091B0008F7DF9CF1F93CF93DF93282F3A
:1014400030E0F901E859FF4F8491F901E458FF4F6A
:10145000D491F901E057FF4FC491CC23A1F0162F8E
:101460008111C1DFEC2FF0E0EE0FFF1FEC55FF4FB5
:10147000A591B4918FB7F894EC91111108C0D09553
:10148000DE23DC938FBFDF91CF911F910895DE2B78
:10149000F8CFFC01918D228D892F90E0805C9F4FC9
:1014A000821B91098F7399270895FC01918D828D7C
:1014B000981731F0828DE80FF11D858D90E0089529
:1014C0008FEF9FEF0895FC01918D828D981761F049
:1014D000A28DAE0FBF2FB11D5D968C91928D9F5F37
:1014E0009F73928F90E008958FEF9FEF0895FC0116
:1014F000538D448D252F30E0842F90E0821B930B79
:10150000541710F0CF96089501970895FC01A48D0B
:10151000A80FB92FB11DA35ABF4F2C91848D90E015
:1015200001968F739927848FA689B7892C93A089F8
:10153000B1898C91837080648C93938D848D981382
:1015400006C00288F389E02D80818F7D8083089515
:10155000CF93DF93EC01888D8823B1F0AA89BB89F2
:10156000E889F9898C9185FD03C0808186FD0CC0D6
:101570000FB607FCF7CF8C9185FFF2CF808185FFF6
:10158000EDCFCE01C3DFEACFDF91CF910895EF9287
:10159000FF920F931F93CF93DF93EC0181E0888F2D
:1015A0009B8D8C8D98131AC0E889F989808185FFFD
:1015B00015C09FB7F894EE89FF896083E889F9899F
:1015C00080818370806480839FBF81E090E0DF91A1
:1015D000CF911F910F91FF90EF900895F62E0B8DF4
:1015E00010E00F5F1F4F0F731127E02E8C8D8E11AF
:1015F0000BC00FB607FCFACFE889F989808185FF17
:10160000F5CFCE0183DFF2CFEB8DEC0FFD2FF11D77
:10161000E35AFF4FF0829FB7F8940B8FEA89FB895A
:1016200080818062D0CFCF92DF92EF92FF921F93A2
:10163000CF93DF93EC016A017B01122FE889F989CE
:1016400082E08083C11481EED806E104F10499F0B0
:1016500060E079E08DE390E0A7019601AFD42150DE
:101660003109410951095695479537952795211517
:1016700080E1380790F0E889F989108260E874E821
:101680008EE190E0A701960199D4215031094109DA
:1016900051095695479537952795EC85FD853083FB
:1016A000EE85FF852083188EEC89FD891083EA89F9
:1016B000FB89808180618083EA89FB8980818860E1
:1016C0008083EA89FB89808180688083EA89FB893D
:1016D00080818F7D8083DF91CF911F91FF90EF906C
:1016E000DF90CF9008951F920F920FB60F921124A2
:1016F0002F938F939F93EF93FF93E0910203F091C9
:1017000003038081E0910803F091090382FD1BC06F
:10171000908180910B038F5F8F7320910C03821750
:1017200041F0E0910B03F0E0EE50FD4F958F809378
:101730000B03FF91EF919F918F912F910F900FBE0F
:101740000F901F9018958081F4CF1F920F920FB6C3
:101750000F9211242F933F934F935F936F937F9337
:101760008F939F93AF93BF93EF93FF9382EF92E09A
:10177000CDDEFF91EF91BF91AF919F918F917F91BE
:101780006F915F914F913F912F910F900FBE0F90EE
:101790001F901895E2EFF2E01382128288EE93E038
:1017A000A0E0B0E084839583A683B7838CE491E0C6
:1017B0009183808385EC90E09587848784EC90E02A
:1017C0009787868780EC90E0918B808B81EC90E00E
:1017D000938B828B82EC90E0958B848B86EC90E0EF
:1017E000978B868B118E128E138E148E0895AF9266
:1017F000BF92CF92DF92EF92FF920F931F93CF93FE
:10180000DF936C017B018B01040F151FEB015E015F
:10181000AE18BF08C017D10759F06991D601ED91F4
:10182000FC910190F081E02DC6010995892B79F793
:10183000C501DF91CF911F910F91FF90EF90DF9045
:10184000CF90BF90AF900895813039F018F082307A
:1018500051F0089510926E00089580916F008D7F71
:1018600080936F000895809170008D7F8093700049
:1018700081E08093B0008091B100887F8460809384
:10188000B1001092B3000895CF93C82F8091080142
:10189000C8130BC0EEEAF0E084919FEF909308012B
:1018A000D3DF60E08C2FCF91C7CD8FEFF9CF1F92A0
:1018B0000F920FB60F9211242F933F934F935F9384
:1018C0006F937F938F939F93AF93BF93EF93FF9308
:1018D0008091920390919303A0919403B09195030A
:1018E000892B8A2B8B2BD1F190918F03E091900360
:1018F000F091910380818927808380919203909158
:101900009303A0919403B0919503181619061A0633
:101910001B069CF48091920390919303A0919403F1
:10192000B09195030197A109B10980939203909317
:101930009303A0939403B0939503FF91EF91BF910C
:10194000AF919F918F917F916F915F914F913F9157
:101950002F910F900FBE0F901F9018958091080146
:1019600093DFEBCF10929703109296038930910585
:10197000E0F48354934FFC0143C3C60CCF0CD60C48
:10198000D90CDC0CDF0CE20CE50CEB0C81E090E0F8
:10199000909397038093960382EF92E044CE82E087
:1019A00090E09093970380939603089584E090E0ED
:1019B000F8CF88E090E0F5CF80E190E0F2CF80E2D0
:1019C00090E0EFCF80E490E0ECCF80E890E090935F
:1019D000970380939603809196039091970391606B
:1019E000E0CF26E030E040E855E260E070E090E0D3
:1019F00080E0B8CF26E030E040E052EC61E070E0FB
:101A000090E080E0AFDF68EE73E080E090E07ADCA9
:101A100082EF92E03EDD892B21F082EF92E053DDF0
:101A2000F7CF90E080E00895CF92DF92EF92FF929F
:101A30000F931F93CF93DF936B017A01E901198212
:101A4000188282EF92E025DD892BA9F0860188813A
:101A500099818E159F0578F482EF92E034DD8F3FF7
:101A60009807A9F3F80181938F01888199810196E4
:101A700099838883ECCF90E080E0DF91CF911F9134
:101A80000F91FF90EF90DF90CF9008950F931F93E9
:101A9000CF93DF93EA018901F89482EF92E0A7DE09
:101AA0007894F801D183C08390E080E0DF91CF91FA
:101AB0001F910F910895CF93DF9300D0CDB7DEB77C
:101AC00081E090E09A83898353DC8BDF70E060E0F3
:101AD00090E080E00E941005009721F029813A8172
:101AE000232BE1F729813A81232B29F40F900F90C2
:101AF000DF91CF9108950E94DA039C012F5F3F4F41
:101B00002230310578F329813A81232BE1F7EACF9E
:101B100040911101509112016091130170911401D3
:101B2000FC01408351836283738308954F925F92D7
:101B30006F927F928F929F92AF92BF92CF92DF92DD
:101B4000EF92FF920F931F93CF93DF9300D000D0BB
:101B500000D01F92CDB7DEB75F834E838901DB01D2
:101B60002D913D914D915C91FC016081718182814B
:101B70009381DFD06B017C012091290130912A01F2
:101B800040912B0150912C01B6D169837A838B83CC
:101B90009C8320912501309126014091270150918D
:101BA0002801C701B601A7D1D8012D913D914D91D2
:101BB0005C91C0D06B017C014090090150900A01FA
:101BC00060900B0170900C01AC019B01C301B2014C
:101BD00015D187FF73C0A3019201C701B601A9D037
:101BE0004B015C01EE81FF814082518262827382EF
:101BF000C0901901D0901A01E0901B01F0901C01D7
:101C0000A5019401C701B601F9D087FF86C0F09104
:101C10002101FE8329813A814B815C81C701B60194
:101C2000EDD087FF7EC0909123019D83A501940193
:101C3000C701B601E3D0882381F0BE81ED81BE13D8
:101C40000CC08091150190911601A0911701B091DF
:101C5000180189839A83AB83BC8320911D01309145
:101C60001E0140911F015091200169817A818B8171
:101C70009C8141D19B01AC01D8016D917D918D91E9
:101C80009C9158D0F8016083718382839383279657
:101C90000FB6F894DEBF0FBECDBFDF91CF911F917D
:101CA0000F91FF90EF90DF90CF90BF90AF909F90FB
:101CB0008F907F906F905F904F90089540900D01AE
:101CC00050900E0160900F0170901001A7019601D5
:101CD000C301B20193D0812C912C540118163CF40D
:101CE000A3019201C701B60124D04B015C01A701F9
:101CF0009601C301B201FBD0181644F4AE81BF8136
:101D00004D925D926D927C92139772CFEE81FF811E
:101D1000C082D182E282F3826BCF809122018E83D6
:101D200079CFA0912401AD8381CFFB019183808382
:101D300008955058BB27AA270ED09FC090D030F0EE
:101D400095D020F031F49F3F11F41EF485C00EF4BD
:101D5000E095E7FB7BC0E92FA1D080F3BA176207BB
:101D600073078407950718F071F49EF5B9C00EF457
:101D7000E0950B2EBA2FA02D0B01B90190010C019B
:101D8000CA01A0011124FF27591B99F0593F50F4B3
:101D9000503E68F11A16F040A22F232F342F44270B
:101DA000585FF3CF469537952795A795F040539503
:101DB000C9F77EF41F16BA0B620B730B840BBAF0D3
:101DC0009150A1F0FF0FBB1F661F771F881FC2F73E
:101DD0000EC0BA0F621F731F841F48F48795779552
:101DE0006795B795F7959E3F08F0B3CF9395880F09
:101DF00008F09927EE0F97958795089503D008F47A
:101E000081E00895990F0008550FAA0BE0E8FEEF56
:101E100016161706E807F907C0F012161306E407AE
:101E2000F50798F0621B730B840B950B39F40A26A7
:101E300061F0232B242B252B21F408950A2609F485
:101E4000A140A6958FEF811D811D089597F99F6789
:101E500080E870E060E008959FEF80EC0895002432
:101E60000A941616170618060906089500240A94FF
:101E700012161306140605060895092E0394000C85
:101E800011F4882352F0BB0F40F4BF2B11F460FF14
:101E900004C06F5F7F4F8F4F9F4F089557FD90583D
:101EA000440F551F59F05F3F71F04795880F97FB1E
:101EB000991F61F09F3F79F08795089512161306D8
:101EC0001406551FF2CF4695F1DF08C01616170607
:101ED0001806991FF1CF869571056105089408953C
:101EE000E894BB2766277727CB0197F908958ADF07
:101EF00008F48FEF08950BD0C0CFB1DF28F0B6DF24
:101F000018F0952309F0A2CFA7CF1124EACFC6DF9E
:101F1000A0F3959FD1F3950F50E0551F629FF001FC
:101F2000729FBB27F00DB11D639FAA27F00DB11D55
:101F3000AA1F649F6627B00DA11D661F829F2227DE
:101F4000B00DA11D621F739FB00DA11D621F839F65
:101F5000A00D611D221F749F3327A00D611D231F3B
:101F6000849F600D211D822F762F6A2F11249F5789
:101F700050408AF0E1F088234AF0EE0FFF1FBB1FAC
:101F8000661F771F881F91505040A9F79E3F51054B
:101F900070F05CCFA6CF5F3FECF3983EDCF3869504
:101FA00077956795B795F795E7959F5FC1F7FE2BF6
:101FB000880F911D9695879597F90895A1E21A2E9D
:101FC000AA1BBB1BFD010DC0AA1FBB1FEE1FFF1FDD
:101FD000A217B307E407F50720F0A21BB30BE40B2D
:101FE000F50B661F771F881F991F1A9469F7609574
:101FF0007095809590959B01AC01BD01CF0108952E
:10200000EE0FFF1F0590F491E02D0994FB01DC0118
:1020100002C001900D9241505040D8F70895F894B5
:02202000FFCFF0
:102022000100A003C408C408FF0000B4420000007D
:10203200000000000000000000000000000000801E
:102042003F01FF01FFB30C4D40DE718A3C050503E1
:10205200050505FF0507FF05050505040402040241
:1020620002060402FF02040500000000C70AF70B83
:0A207200770AA80A490A630A550A12
:00000001FF
