:10000000D4C00000FAC00000F8C00000F6C0000034
:10001000F4C00000F2C00000F0C00000EEC000001C
:10002000ECC00000EAC000000C9493340C945133EF
:10003000E4C00000E2C00000E0C00000DEC000003C
:10004000DCC00000DAC00000D8C00000D6C000004C
:10005000D4C00000D2C00000D0C000000C94BD2B62
:10006000CCC000000C9475300C94A730C6C00000C2
:10007000C4C00000C2C00000C0C00000BEC000007C
:10008000BCC00000BAC00000B8C000000C94EB2552
:10009000B4C00000B2C00000B0C00000AEC000009C
:1000A000ACC00000AAC00000A8C0000007060504FC
:1000B0000100080A0B0C0D090000000200090F00E6
:1000C00000030401000C000000000000000000001C
:1000D00000000000000000040802011040804010F1
:1000E000204080408008020401804020100201105E
:1000F000801020404020040404040403040502028C
:1001000002020403020202020606060606060404B0
:10011000020202040400000000250028002B002E2B
:1001200000310000000000240027002A002D0030CC
:1001300000080B0002020200000904000001020294
:100140000000052400100105240101010424020619
:100150000524060001070581031000400904010081
:10016000020A0000000705020240000007058302A2
:1001700040000012010002EF0201404123368000DE
:10018000010102030141726475696E6F204C4C439A
:100190000041726475696E6F204C656F6E617264A8
:1001A0006F0004030904382FCC3011241FBECFEF99
:1001B000DAE0DEBFCDBF12E0A0E0B1E0E2E6FCE6AF
:1001C00002C005900D92A832B107D9F726E0A8E247
:1001D000B2E001C01D92A839B207E1F710E0C5ED09
:1001E000D0E004C02197FE010E940036C33DD10734
:1001F000C9F70E94DE260C942F3602CFCF93DF93EF
:10020000882349F0EB0181500E94B92C998388839F
:10021000DF91CF910895FB0111821082F9CF0F93E6
:100220001F938B019C0183E03695279517950795C1
:100230008A95D1F70F5C1D4F462F477021E030E0C3
:10024000F90102C0EE0FFF1F4A95E2F7AF01F80176
:1002500020812423CB010196211102C090E080E08F
:100260001F910F9108950F931F938B019C0183E0C1
:1002700036952795179507958A95D1F7677081E090
:1002800090E001C0880F6A95EAF7F801EF5CFD4F36
:100290002081452B31F48095822380831F910F911B
:1002A0000895822BFACFCF92DF92EF92FF92CF93F5
:1002B000DF936B017C0160E082E1C816D104E104A8
:1002C000F10490F482E18C0D0E94D02DE60121967C
:1002D000AE01C701B601C7DFCE01DF91CF91FF901C
:1002E000EF90DF90CF9008958C2DEECF882341F0D2
:1002F0008150682F70E090E080E050E040E0B3CFA4
:100300000895CF93282F8823E1F0CB01BA01CFEFD6
:10031000C20FEC2FF0E0E65CFD4F2081213059F454
:1003200090580E94D7299B01AC016C2F70E090E09F
:1003300080E0CF91A2C00E94D2298C2FCF910C9443
:10034000E32CCF9108950F931F938B019C0183E0C1
:1003500036952795179507958A95D1F7085D1D4F16
:10036000462F477021E030E0F90102C0EE0FFF1F79
:100370004A95E2F7AF01F80120812423CB010196D1
:10038000211102C090E080E01F910F9108950F931A
:100390001F938B019C0183E0369527951795079550
:1003A0008A95D1F7677081E090E001C0880F6A9567
:1003B000EAF7F801E85DFD4F2081452B31F4809587
:1003C000822380831F910F910895822BFACF4F9241
:1003D0005F926F927F928F929F92AF92BF92CF92D5
:1003E000DF92EF92FF920F931F93CF93DF934B0116
:1003F0005C0129013A01670161E0882D0E94D02D3E
:10040000E4012196AE01C501B401C1DF20E030E076
:10041000A901C801B6010E94562B18168CF4F401EC
:10042000E65CFD4F81E08083C801B6010E94D729B8
:100430006B01C301B2010E94D729A601C40121D0DA
:10044000CE01DF91CF911F910F91FF90EF90DF9040
:10045000CF90BF90AF909F908F907F906F905F9064
:100460004F900895882341F08150682F70E090E00C
:1004700080E050E040E08BCF0895862FB9010C94C6
:10048000E32C9C01FC01E854FF4FE491E150EF3074
:10049000B8F4F0E0E25BFD4F0C9400365D026402BC
:1004A00067027E029302600260026002A802BF023D
:1004B000D402E902FC026002080384B5806884BDAE
:1004C00060E0822F0C940C2E84B58062F8CF80916E
:1004D00080008C7F82608093800080918100807E8C
:1004E0008061682B60938100509387004093860061
:1004F00080918000806880938000E2CF80918000AE
:100500008C7F82608093800080918100807E8061FA
:10051000682B609381005093870040938600809100
:1005200080008062E8CF809180008C7F8260809321
:10053000800080918100807E8061682B60938100C3
:100540005093870040938600809180008860D3CFCD
:10055000809190008C7F82608093900080919100C8
:10056000807E8061682B6093910050939700409348
:10057000960080919000806880939000A1CF809138
:1005800090008C7F82608093900080919100807EAB
:100590008061682B60939100509397004093960080
:1005A000809190008062E8CF809190008C7F826083
:1005B0008093900090919100907E9061692B609360
:1005C000910050939700409396008091900088602E
:1005D000D3CF8091C100807F682B6093C10040938E
:1005E000D1008091C00080688093C0008091C000DD
:1005F0008F7B8093C00064CF8091C100807F682B87
:100600006093C1004093D1008091C0008062F1CF1F
:100610008091C100807F682B6093C1004093D1001E
:100620008091C20088608093C2008091C2008B7F5D
:100630008093C20045CF90E080E008950F931F9310
:10064000009709F488C06115710509F484C0009110
:100650001C0110911D0120911E0130911F010E3FC0
:100660001F4F2F4F3F4F09F068C0DB014D915D9147
:100670006D917C9140931C0150931D0160931E016C
:1006800070931F0140911C0150911D0160911E014A
:1006900070911F01DC011296ED91FC918081918196
:1006A000A281B3818093BC029093BD02A093BE024D
:1006B000B093BF0284819581A681B7818093B802EF
:1006C0009093B902A093BA02B093BB028085918542
:1006D000A285B3858093B4029093B502A093B6022D
:1006E000B093B70284859585A685B7858093B002BF
:1006F0009093B102A093B202B093B3021092AC02F5
:100700001092AD021092AE021092AF021CD688EC8D
:1007100099E0909359028093580290935B028093E2
:100720005A0200D5009731F421E030E03093C10245
:100730002093C0021F910F91089500911C01109108
:100740001D0120911E0130911F01FB0100831183C7
:100750002283338397CF8FEF9FEFECCF8F929F92BF
:10076000AF92BF92CF92DF92EF92FF921F93CF93FF
:10077000DF934B015C011091C30282E090E0909303
:10078000C1028093C00281149104A104B10441F418
:100790008091C302811104C08091C202C1E0811125
:1007A000C0E0C12CD12C76018091C302811106C01A
:1007B0008091C202811102C0CC23D9F083E090E085
:1007C0009093C1028093C002CC2379F1CCE9DFEF92
:1007D000111102C00E942C0DCE01DF91CF911F910B
:1007E000FF90EF90DF90CF90BF90AF909F908F9051
:1007F00008956AE070E080E090E00E942C2C80E197
:10080000C80E87E2D81EE11CF11C8FEF88169806EF
:10081000A806B80631F0C1E08C149D04AE04BF04F4
:1008200008F0C0E080E0B2D4BFCFD0E0C0E0D0CFCD
:10083000CF92DF92EF92FF920F931F93CF93DF93AC
:100840008F3F910511F008F050C02091C002309107
:10085000C1022330310539F02091C0023091C1022C
:100860002130310531F424E030E03093C10220938F
:10087000C0026A017B01EC0182309105A0F011E019
:10088000AE01C701B6014DD4AB01BC01CE011123AD
:10089000F9F0DF91CF911F910F91FF90EF90DF90D2
:1008A000CF900C944C0F8C01000F111F085A1D4F54
:1008B000D8018D919C91892B11F30E94560F0297BC
:1008C000F1F6D801ED91FC91CE010995182FD8CF02
:1008D0000E946E0F90E080E0DF91CF911F910F9109
:1008E000FF90EF90DF90CF9008958FEF9FEFF4CFC0
:1008F00080E04CC4CF93DF9386E090E09093C102F8
:100900008093C0029CD4EC01E8E5F2E084E0DF01D2
:100910001D928A95E9F70E94C40C1092C1021092B0
:10092000C002CE01DF91CF9108958091C202089557
:100930008091AB02089560931C0170931D01809318
:100940001E0190931F0190E080E008954F925F9206
:100950006F927F928F929F92AF92BF92CF92DF92CF
:10096000EF92FF920F931F93CF93DF9300D0CDB7F9
:10097000DEB78091180190911901A0911A01B091F0
:100980001B018093170690931806A0931906B09345
:100990001A0662E170E080E090E041DC9093690625
:1009A0008093680643E050E0BE016F5F7F4F26DC16
:1009B000C0900001D0900101E0900201F09003018D
:1009C000A701960160914A0670914B0680914C06F2
:1009D00090914D060E9466298823B9F080912406E3
:1009E00090912506A0912606B09127060197A105B2
:1009F000B10519F481E080932906C0924A06D0928D
:100A00004B06E0924C06F0924D0680912906882311
:100A100091F01092290680914A0690914B06A09180
:100A20004C06B0914D0680935E0690935F06A093AE
:100A30006006B093610620915606309157064091AA
:100A400058065091590660915E0670915F0680913C
:100A50006006909161060E945A2B20E030E040E849
:100A60005FE30E9402296B017C01AC019B0160E005
:100A700070E080E89FE30E946A294B015C01698174
:100A80007A8190E080E00E94032A20910401309155
:100A9000050140910601509107010E945A2B2091B7
:100AA00008013091090140910A0150910B010E9407
:100AB0000229A50194010E945A2B2B013C01A5019A
:100AC000940160E070E080E89FE30E94012920919A
:100AD0005A0630915B0640915C0650915D060E947B
:100AE0005A2B9B01AC01C301B2010E940229609301
:100AF0001F06709320068093210690932206C092D1
:100B00005606D0925706E0925806F0925906609326
:100B10005A0670935B0680935C0690935D0628E707
:100B200036E04BE156E06FE176E087E196E00E9427
:100B3000662763E070E080E090E005DC909371064A
:100B400080937006A0901B06B0901C0600911D06B5
:100B500010911E06C0900C01D0900D01E0900E0186
:100B6000F0900F019601A701B501C8010E94562B14
:100B7000181694F0C0901001D0901101E09012016D
:100B8000F09013019601A701B501C8010E946629E2
:100B900087FD02C065017801209114013091150193
:100BA0004091160150911701B601C7010E945A2BBE
:100BB0000E94402A6B017C010E94C92881114FC00C
:100BC000C701B6010E94A028811149C020E030E091
:100BD00040E853E4C701B6010E945A2A6B017C0128
:100BE00020E030E0A9010E94662987FF3BC0C701D1
:100BF000B60190580E94D729619570E090E080E09E
:100C00000E94052AAB01BC0180917006909171068B
:100C100078DB8091860290918702A0918802B09142
:100C200089020196A11DB11D8093860290938702CF
:100C3000A0938802B09389020F900F90DF91CF911B
:100C40001F910F91FF90EF90DF90CF90BF90AF90EA
:100C50009F908F907F906F905F904F900895C12CE0
:100C6000D12C7601C701B6010E94D729C6CFBF9209
:100C7000CF92DF92EF92FF920F931F93CF93DF9368
:100C800084E090E00E946928E0E7F2E080E090E0F4
:100C9000A1EEB4E4828F938FA48FB58F85ED91E49C
:100CA000A9E6B3E984839583A683B78389E690EFA9
:100CB000AFE8B4EB80879187A287B38782EC91E796
:100CC000A6E0B3E284879587A687B78787E391E399
:100CD000A9E1BCE0808B918BA28BB38BA4E6B2E040
:100CE000B383A283ECE5F2E01196FC93EE938DE7DB
:100CF00091E0918380839383828395838483978318
:100D0000868384E892E015969C938E93149784E7EB
:100D100092E013969C938E93129748E057E060E020
:100D200070E018964D935D936D937C931B976CE7E1
:100D300076E080E792E00E946528C3E2D6E01FAE2D
:100D4000C12CD12C7601C394C0926306D092640664
:100D5000E0926506F092660662E170E080E090E065
:100D6000A2DA9093690680936806BB24B394B0928C
:100D7000670618828091000190910101A091020103
:100D8000B09103018FA398A7A9A7BAA7C982DA8255
:100D9000EB82FC82CBA6DCA6EDA6FEA6CFA6D8AA47
:100DA000E9AAFAAA1BAA1CAA1DAA1EAA1FAA18AE63
:100DB00019AE1AAE8BAF9CAFADAFBEAFBD821E8277
:100DC00010926A06C0926B06D0926C06E0926D0695
:100DD000F0926E06E12CF12C8701A801970163E0E7
:100DE00070E080E090E0F3DA9093710680937006F3
:100DF000B0926F0688E796E00E945827EBAAFCAAFB
:100E00000DAB1EABEFAAF8AE09AF1AAFDF91CF91D1
:100E10001F910F91FF90EF90DF90CF90BF900895BA
:100E20008091620681111DC081E0809362068091ED
:100E3000630690916406A0916506B09166060197DD
:100E4000A105B10571F480916706882351F062E134
:100E500070E080E090E0E3D99093690680936806A3
:100E600045DA80912306811126C081E08093230614
:100E70008091240690912506A0912606B091270620
:100E80000197A105B105B9F480912806882399F04E
:100E90008FEF9FEFDC0180934E0690934F06A09357
:100EA0005006B09351068093520690935306A09338
:100EB0005406B093550680916A0681112AC081E0DC
:100EC00080936A0680916B0690916C06A0916D06E6
:100ED000B0916E060197A105B105D9F480916F0616
:100EE0008823B9F063E070E080E090E02CDA909322
:100EF00071068093700640E050E0BA0102DA63E0C8
:100F000070E080E090E01FDA9093710680937006A5
:100F1000A9CA08954F925F926F927F928F929F928B
:100F2000AF92BF92CF92DF92EF92FF920F931F93F7
:100F3000F89440909B0250909C0260909D027090AB
:100F40009E02C0908F02D0909002E0909102F090AB
:100F50009202452B09F0A6C09B01AC01241935096A
:100F60004609570929013A01009197021091980208
:100F70002091990230919A0248015901840C951CE4
:100F8000A61CB71C80169106A206B306A0F4009119
:100F900093021091940220919502309196020F5F76
:100FA0001F4F2F4F3F4F00939302109394022093B3
:100FB0009502309396028092970290929802A092A6
:100FC0009902B0929A02009193021091940220919A
:100FD00095023091960280929F029092A002A09278
:100FE000A102B092A2020093A3021093A402209344
:100FF000A5023093A60260939B0270939C0280939B
:101000009D0290939E02A301920160E472E48FE03E
:1010100090E00E94BB356C0D7D1D8E1D9F1D609361
:101020008F027093900280939102909392020091AC
:101030001C0110911D0120911E0130911F010F3FD5
:101040001F4F2F4F3F4FF1F000911C0110911D01D8
:1010500020911E0130911F010E3F1F4F2F4F3F4F18
:1010600089F0C0901C01D0901D01E0901E01F0900D
:101070001F0121E08C149D04AE04BF0408F420E09D
:101080002093AB0278941F910F91FF90EF90DF9027
:10109000CF90BF90AF909F908F907F906F905F9018
:1010A0004F9008954B015C0184189508A608B70875
:1010B000A3019201261B370B480B590B64157505CC
:1010C00086059705E0F082169306A406B50640F45F
:1010D00020E030E0A90181149104A104B104A1F43D
:1010E00060E472E48FE090E00E94BB35A7019601B6
:1010F000261B370B480B590BCA01B901C3CF821607
:101100009306A406B50660F7A501940160E472E4B5
:101110008FE090E00E94BB356C0D7D1D8E1D9F1DE4
:10112000B1CFF8CECF93DF9300D000D0CDB7DEB7EC
:101130001C821B821A8219821092A7021092A802A6
:101140001092A9021092AA02BE016F5F7F4FCE01DA
:1011500003960E94862569817A818B819C810E94F9
:10116000761E009761F4BE016F5F7F4FCE0103963C
:101170000E94922569817A818B819C8123D50F9071
:101180000F900F900F90DF91CF910895FF920F93E2
:101190001F93CF93DF93082F60E070E0CB010E9494
:1011A0002C2CFF24F3940E94611DEC01892B89F003
:1011B00010E0CE3F8FEFD80769F0002361F160E0C7
:1011C00070E0CB010E942C2C81E090E0892B59F338
:1011D00022C011E01AD5EC01892B21F0CE3F8FEF10
:1011E000D80759F711111EC011E0229609F410E03A
:1011F0000E94121DEC01892B21F0CE3F8FEFD80702
:10120000E1F6111111C011E0CE3F8FEFD80709F4BC
:1012100010E001110BC0CE01DF91CF911F910F9112
:10122000FF90089511E0E4CF11E0F3CF60E070E0AB
:10123000CB010E942C2C1F25812F90E0C7CFCF938C
:10124000DF938091AB02882321F060E070E0CB0156
:1012500043D62CD6D0E0C0E0892B71F06AE070E074
:1012600080E090E00E942C2C81E090DF1FD6219638
:10127000C03727E1D20781F71ED60E94CA1E1092FE
:10128000C3021092C2021092BC021092BD021092D0
:10129000BE021092BF021092B8021092B9021092D0
:1012A000BA021092BB021092B4021092B5021092D0
:1012B000B6021092B7021092B0021092B1021092D0
:1012C000B2021092B3021092AC021092AD021092D0
:1012D000AE021092AF024EEF5FEF6FEF7FEF4093E1
:1012E0001C0150931D0160931E0170931F01109209
:1012F000AB02EFE9F2E028E0DF011D922A95E9F761
:1013000010929B0210929C0210929D0210929E02DB
:1013100010929702109298021092990210929A02DB
:1013200010929302109294021092950210929602DB
:1013300010928F02109290021092910210929202DB
:10134000DF91CF9108951092CF021092D0021092A7
:10135000D1021092D2021092CE028091D7029091C7
:10136000D8029093CD028093CC021092CB021092BF
:10137000CA021092C6021092C7021092C8021092BE
:10138000C9021092D4021092D30290E080E0089536
:10139000CF92DF92EF92FF920F931F93CF938C0126
:1013A000892B09F055C02091D7023091D802809145
:1013B000CC029091CD024091D7025091D802509327
:1013C000CD024093CC022817390781F01092CB024E
:1013D0001092CA021092C6021092C7021092C8025E
:1013E0001092C9021092D4021092D3028091D702B7
:1013F0009091D802019761F58091D3029091D40227
:10140000892B21F480912001811112C08091D30297
:101410009091D4020197E1F48091C6029091C702A5
:10142000A091C802B091C9020197A105B10581F44C
:101430001092C6021092C7021092C8021092C902FE
:101440001092200182E090E09093D4028093D30226
:101450008091D7029091D802019709F01CC1809128
:10146000ED029091EE028017910709F014C180916E
:10147000E9029091EA02A091EB02B091EC02009790
:1014800009F409C12091E80221110DC04091E9023F
:101490005091EA026091EB027091EC02452B462BD1
:1014A000472B09F4F8C02091D3023091D4022230A6
:1014B000310509F0F0C02091CA022111ECC0FC01F5
:1014C000C080D180E280F3808091CE02882309F42D
:1014D000D3C08091DA029091DB02892B09F4FDC020
:1014E0002091DA023091DB0281E02230310509F0EF
:1014F00080E02091DA023091DB02C1E02130310539
:1015000049F02091DA023091DB02C1E0223031054E
:1015100009F0C0E0882309F456C02091E40230911C
:10152000E5024091E6025091E702C701B6010E9430
:10153000562B87FD14C02091E4023091E5024091C2
:10154000E6025091E7026091CF027091D002809143
:10155000D1029091D2020E94662987FD22C020917B
:10156000E4023091E5024091E6025091E702C701A2
:10157000B6010E94562B181634F52091E4023091E2
:10158000E5024091E6025091E7026091CF0270912E
:10159000D0028091D1029091D2020E9466298111DD
:1015A00012C08091DC029091DD02A091DE02B09128
:1015B000DF02892B8A2B8B2B19F481E08093CB02DD
:1015C00081E08093CA02CC2309F456C02091E40242
:1015D0003091E5024091E6025091E702C701B60161
:1015E0000E94662987FF14C02091E4023091E50231
:1015F0004091E6025091E7026091CF027091D002D3
:101600008091D1029091D2020E94562B87FF22C076
:101610002091E4023091E5024091E6025091E70208
:10162000C701B6010E946629811126C02091E402FB
:101630003091E5024091E6025091E7026091CF02BD
:101640007091D0028091D1029091D2020E94562BCB
:10165000181694F48091DC029091DD02A091DE02D4
:10166000B091DF02892B8A2B8B2B19F481E08093B8
:10167000CB0281E08093CA0281E09091CA0291116D
:1016800080E08093CE02C092CF02D092D002E0924E
:10169000D102F092D202012B09F067C18091D302EE
:1016A0009091D402892BD9F41092D9021092CA02D7
:1016B00080912001882379F082E090E09093D40219
:1016C0008093D302109220012091D7023091D8024A
:1016D00081E0232BE9F080E01BC081E00ACF10926B
:1016E00020018091D902882349F01092CB021092F8
:1016F000D4021092D3021092D902EDCF8091D7027A
:101700009091D802892BE1F08091CA021092CA020E
:101710002091D3023091D4022230310509F45EC009
:1017200088F42115310509F448C02130310509F448
:10173000F3C01092CB021092CA021092D90238C0A4
:1017400081E0E6CF2330310509F4B1C02430310502
:1017500081F74091C6025091C7026091C802709112
:10176000C902411551056105710561F041505109EA
:10177000610971094093C6025093C7026093C80281
:101780007093C9024091C6025091C7026091C8028D
:101790007091C902452B462B472BD9F42091D502D5
:1017A0003091D6022130310509F046C01092CB02AB
:1017B0001092D4021092D3020CC080912001882391
:1017C00041F082E090E09093D4028093D302109293
:1017D00020011092C4028091CB02CEC08823C9F3AD
:1017E0008091DC029091DD02A091DE02B091DF02D7
:1017F000181619061A061B060CF07DC08091D70238
:101800009091D802019709F076C08091DC02909106
:10181000DD02A091DE02B091DF028093C6029093B8
:10182000C702A093C802B093C90283E090E09093EE
:10183000D4028093D302CDCF4091E0025091E102D7
:101840006091E2027091E302452B462B472BA9F0F1
:101850001092CB028091E0029091E102A091E2020D
:10186000B091E3028093C6029093C702A093C8028E
:10187000B093C90281E090E0DACF882399F080919B
:10188000210190912201A0912301B0912401809324
:10189000C6029093C702A093C802B093C90284E025
:1018A00090E0C5CF1092CB0282E090E0C0CF809153
:1018B000C6029091C702A091C802B091C9020097D8
:1018C000A105B10559F00197A109B1098093C6029C
:1018D0009093C702A093C802B093C9028091C60238
:1018E0009091C702A091C802B091C902892B8A2B9E
:1018F0008B2B09F06ECF8091210190912201A09154
:101900002301B0912401892B8A2B8B2B09F44ECF14
:1019100081E08093CB02B3CF4091C6025091C702C1
:101920006091C8027091C9024115510561057105A8
:1019300061F041505109610971094093C602509309
:10194000C7026093C8027093C9024091C6025091C9
:10195000C7026091C8027091C902452B462B472BE4
:1019600009F037CF8111C7CF9FCF8091C402882360
:1019700009F431CF8091C502CF911F910F91FF9053
:10198000EF90DF90CF9008951092CF021092D00286
:101990001092D1021092D2021092CE021092D40272
:1019A0001092D3021092CD021092CC021092EE024D
:1019B0001092ED021092CB021092CA021092C6024F
:1019C0001092C7021092C8021092C9021092C5026A
:1019D0001092C4021092E9021092EA021092EB02F5
:1019E0001092EC021092E8021092E4021092E502CA
:1019F0001092E6021092E70288EE93E0A0E0B0E0D9
:101A00008093210190932201A0932301B09324019C
:101A10001092E0021092E1021092E2021092E302B0
:101A20001092DC021092DD021092DE021092DF02B0
:101A30001092DB021092DA0281E080932001109272
:101A4000D9021092D8021092D7021092D6021092A8
:101A5000D50290E080E008958091D7029091D8025D
:101A6000892BE1F480912001882351F08091D902E3
:101A7000811106C081E08093C5028093C40208955D
:101A80008091D902882341F080912001811104C006
:101A90001092C50281E0F1CF1092C402089582E055
:101AA00090E0FA01918380838FEF9FEF0895CF93A9
:101AB000DF93EA01009711F00E94EA1F1982188251
:101AC00090E080E0DF91CF910895DB01009719F459
:101AD0008FEF8C9308952EEF2C93409680319105D3
:101AE00008F036C0FC01E958F24F0C940036A60D00
:101AF000A40DA20DA00D9E0D9C0D980D9A0D960D96
:101B0000940D920D8F0D8B0D870D8D0DA80D80E31B
:101B100011968C93089589E2FBCF82E2F9CF11965A
:101B20001C92089583E2F4CF81E2F2CF81E1F0CFFD
:101B300087E2EECF8AE2ECCF80E1EACF84E2E8CF21
:101B400088E2E6CF86E2E4CF81E3E2CF83E3E0CF31
:101B500080E2DECF9093FC028093FB020895809197
:101B6000FA0208959091FA02892B8093FA0208955F
:101B7000982F90958091FA0289238093FA02089514
:101B80008091F90208958091F7029091F8020895EA
:101B90006115710559F0FB0130E020E070E060E074
:101BA0002417350719F06115710511F0CB0108955F
:101BB000A081B181A817B90709F4BF012F5F3F4F7A
:101BC0003696EECF8091FD0281111CC062D268D2A0
:101BD0009093F0028093EF020E94EC170E94FE1790
:101BE0009093F4028093F3020E947C1C0E94831C59
:101BF0009093F2028093F10281E08093FD0290E0E5
:101C000080E0089584EF9FEF08958F929F92AF92A6
:101C1000BF92CF92DF92EF92FF920F931F93CF93D9
:101C2000DF93CDB7DEB72A970FB6F894DEBF0FBEAD
:101C3000CDBF1A86198618861F821E821D821C82BD
:101C40001B821A8219828091FD0207EF1FEF882301
:101C500009F49CC08E010D5F1F4F9E012B5F3F4F0B
:101C6000AE01495F5F4FBE01675F7F4F90E080E04C
:101C70000E94FC1D8C01009721F00596029708F048
:101C8000DBC029853A852115310509F402C1ED80B3
:101C9000FE804B815C81B701640F751F8F81988531
:101CA0008617970708F4F5C0E20EF31ED7019C9142
:101CB000903C09F07FC04230510508F47BC011967A
:101CC0008C914091FB025091FC02452B09F49CC081
:101CD000913F08F071C02CE1290F2D3008F48BC022
:101CE0002DE2290F203108F489C0903C21F4815065
:101CF000823008F483C088E3890F8B3008F481C0F8
:101D000095E6C92E9DE0D92EEFE4FDE06D817E8140
:101D1000AE014F5F5F4F89859A8509955C01C114BB
:101D2000D104A1F189809A808114910479F18B8189
:101D30009C818815990508F487C010E000E04B816C
:101D40005C8170E060E0C7010E9428360115110532
:101D5000E9F449815A8169857A858D819E81680F70
:101D6000791FC501F6010995E980FA800D811E8170
:101D70002F81388549855A856FEF7FEF81E090E0AC
:101D80000E94981D8C01892B09F056C0C8012A9623
:101D90000FB6F894DEBF0FBECDBFDF91CF911F917C
:101DA0000F91FF90EF90DF90CF90BF90AF909F90FA
:101DB0008F90089580E085CF30E020E0220F331F20
:101DC000F901E151FD4F0190F081E02D309709F4C8
:101DD00097CF892F90E00995009709F491CFDC0106
:101DE0001296ED91FC9113971496CD90DC9030975C
:101DF00009F08CCF1FC021E030E0E0CF22E030E0DE
:101E0000DDCF23E030E0DACFD12CC12CE7E5FDE0D7
:101E10009F3F09F07BCFE091EF02F091F002309705
:101E200021F4C90104EF1FEF0CC08FEF90E009957A
:101E30000097A9F604EF1FEF89859A85009709F4AA
:101E4000A5CF0E94EA1FA2CF0E94C51E8C018985E2
:101E50009A850E94EA1F70E060E0C4010E945E1E45
:101E600098878F830E94951D9E838D836F817885CF
:101E70006115710559F0C8010E9476219A878987FA
:101E800006EF1FEF892B09F058CF59CF08EF1FEF4E
:101E900056CF08EF1FEFD0CF2091FD02222319F07B
:101EA00020E00C94031887EF9FEF08958091FB02C8
:101EB0009091FC0208950E94881C0E94E21BF5D0BC
:101EC000EFEEF2E088E0DF011D928A95E9F71092CB
:101ED000FD0290E080E008950C943F1A21E040E07C
:101EE00050E0BA010C94031886E090E0FA01918367
:101EF000808390E080E0089547E050E060E871E082
:101F000047CEDF92EF92FF920F931F93CF93DF9311
:101F10008A01EC01C60FD71FE0900103F090020385
:101F2000D9800E94AD1ED816190678F082E090E0A4
:101F3000F801918380838EEF9FEFDF91CF911F9106
:101F40000F91FF90EF90DF900895EF2841F482E029
:101F500090E0F8019183808384EF9FEFEECF898139
:101F60008093000390E00196F8019183808390E0D4
:101F700080E0E3CFCF93DF93EA010E94F01A882339
:101F800021F00E94BA1E0E94F11A82E090E099832B
:101F900088838BEF9FEFDF91CF910895CF93DF93ED
:101FA000EB0186E0FB0111928A95E9F78FEF8883B8
:101FB000D6DD8983E5DD8A83E6DD9D838C83DF9131
:101FC000CF910895CF93DF93EA010E94F31A811114
:101FD00009C082E090E09983888385EF9FEFDF91CD
:101FE000CF91089590E080E0B5DD81E090E09983A5
:101FF000888390E080E0F3CF0F931F93CF93DF931C
:10200000EA018C01060F171F0E94F31A81110BC001
:1020100082E090E09983888385EF9FEFDF91CF91F5
:102020001F910F910895F8018181823038F082E08C
:1020300090E0998388838EEF9FEFF0CF81E090E06E
:1020400089DD88E090E09983888390E080E0E6CFA6
:10205000CF93DF930097D1F4EB01FB01329686E03A
:10206000DF011D928A95E9F78FEF888385E08983E8
:102070001A820E94AD1E8B830E94AC1E9D838C83AE
:1020800081E08E838F83DF91CF910895DF91CF918F
:102090001CCD8CE79FE09093FF028093FE02089591
:1020A0008091FE029091FF0208951092FF0210921B
:1020B000FE02089580910103909102030895411159
:1020C00005C0611571058105910561F060930103FB
:1020D00070930203809303039093040340930503DA
:1020E00081E0089580E00895FF920F931F93CF93AE
:1020F000DF938A01EC01C60FD71FF9800E94AD1E45
:10210000F816190668F082E090E0F8019183808368
:102110008EEF9FEFDF91CF911F910F91FF90089568
:102120006C817D818E819F814B81C9DF811108C0C7
:1021300082E090E0F8019183808384EF9FEFEACF03
:1021400089818093000390E00196F8019183808358
:1021500090E080E0DFCFCF93DF93EA01FC01E60F50
:10216000F71F64817581868197814381A8DF811182
:1021700009C082E090E09983888384EF9FEFDF912C
:10218000CF91089581E090E09983888390E080E08A
:10219000F6CFE1E0F3E04081518162817381480F25
:1021A000511D611D711D40835183628373830895A6
:1021B000CF93C09100034C2F50E0609101037091C8
:1021C000020301960E941F368C2FE3DF109200035A
:1021D000CF910895009799F48091010390910203A3
:1021E0002FEFFB012083892B59F02091000330E071
:1021F0002F5F3F4F2417350719F4CB01D9CF65CC9A
:102200000895009799F480910103909102032FEFB4
:10221000FB012083892B59F02091000330E02F5FD0
:102220003F4F2417350719F4CB01C2CF4ECC089588
:1022300023E1AC01249FC001259F900D1124E09162
:102240000A03F0910B03E80FF91F23813481225018
:10225000310981E02230310508F080E008950F93C4
:102260001F93CF93DF9300910C0310910D03D0E0E7
:10227000C0E080E00C171D0749F491E0811190E067
:10228000892FDF91CF911F910F9108958111F5CF83
:10229000CE01CEDF2196EECFA0910A03B0910B03C1
:1022A000109729F120910C0330910D0382179307A9
:1022B000F0F453E1589F9001599F300D1124A20F63
:1022C000B31FED91FC911197309789F012968C9184
:1022D000681768F48DE0689FE00DF11D112480817E
:1022E0009181892B21F081E09281491708F080E0EB
:1022F00008959C0143E1429FC001439F900D11242A
:10230000E0910A03F0910B03E80FF91F83858230F7
:1023100091F481E090E065817681409125015091B2
:1023200026016417750711F490E080E0892B19F0FD
:1023300081E0232B09F080E00895FC01A081B181A8
:102340008DE0689FA00DB11D112413964D915C91F5
:1023500085859685489F9001499F300D589F300D87
:102360001124C9010196611103C0478144FD0496FF
:102370000895EF92FF920F931F93CF93DF93EA019B
:10238000FC01E60FF71F02811381E480F5804F2DD9
:102390006E2DC80181DF81110DC082E090E099832C
:1023A00088838EEF9FEFDF91CF911F910F91FF9068
:1023B000EF900895C8013CDF882339F082E090E077
:1023C0009983888388EF9FEFEECF10932C010093C1
:1023D0002B01E0922D01F0922E0181E090E0998393
:1023E000888390E080E0DFCFCF92DF92EF92FF9280
:1023F0000F931F93CF93DF937A01EC01C60FD71F82
:10240000C0902B01D0902C0100912D0110912E0134
:10241000412F602FC60140DF811110C082E090E0A3
:10242000F701918380838AEF9FEFDF91CF911F9116
:102430000F91FF90EF90DF90CF900895C601F8DEE6
:10244000882341F082E090E0F7019183808388EF58
:102450009FEFEBCF4C815D816E817F819A81898175
:102460008F3F41F082E090E0F701918380838EEF0F
:102470009FEFDBCFE3E1EC9D9001ED9D300D11244A
:10248000E0910A03F0910B03E20FF31F0190F0813A
:10249000E02D2DE0029FE00DF11D11240190F0814F
:1024A000E02D27E0129FE00DF11D11248083918320
:1024B0008B81828343835483658376831F5F10936C
:1024C0002E0181E090E0F7019183808390E080E02D
:1024D000ACCFEF92FF920F931F93CF93DF937A01CC
:1024E0008C01060F171FC0910A03D0910B03209790
:1024F00081F021E030E0F8018281938140910C036A
:1025000050910D038417950710F030E020E0232B45
:1025100071F482E090E0F701918380838EEF9FEF6A
:10252000DF91CF911F910F91FF90EF90089543E1BC
:10253000489F9001499F300D1124C20FD31F78DEB0
:10254000882341F082E090E0F7019183808388EF57
:102550009FEFE6CFF8012481358120383105C8F698
:1025600087818111D6CF4181842F90E08F7E0097A3
:1025700041F082E090E0F7019183808386EF9FEF46
:10258000CFCF4F833E832D83268128871986223023
:1025900010F421E0288721E030E0F7013183208327
:1025A000BFCF88E090E0FA019183808390E080E0E3
:1025B0000895FB018FEF808381E181838FEF9FEF8F
:1025C0009383828380E890E09583848316821782C8
:1025D0000895FB018FEF808391E091838283938341
:1025E000848384E3858381E090E0978386830895E4
:1025F00082E090E0FA019183808380EF9FEF08955D
:10260000DF92EF92FF920F931F93CF93DF93EA0134
:10261000FC01E60FF71F8181813071F082E090E0CC
:10262000998388838FEF9FEFDF91CF911F910F9157
:10263000FF90EF90DF90089582819381D48025816F
:10264000E680F78000910A0310910B030115110534
:1026500039F482E090E0998388838CEF9FEFE4CF98
:1026600040910C0350910D038417950738F082E0D8
:1026700090E0998388838EEF9FEFD6CF892B39F036
:1026800082E090E09983888386EF9FEFCDCF8D2DF8
:102690008D7FB1F72130A1F781E0D11006C091E024
:1026A000E916F10431F080E004C0E2E0EE16F10436
:1026B000D0F3882329F390E080E0BADD882339F055
:1026C00082E090E09983888388EF9FEFADCFF80197
:1026D000D38681E08487F686E586108A178681E0B6
:1026E00090E09983888390E080E09ECF4DE050E0B9
:1026F0006AEA71E04DCA8F929F92BF92CF92DF92A9
:10270000EF92FF920F931F93CF93DF93EA01FC01A7
:10271000E60FF71F828193810481B580E0910A035F
:10272000F0910B03309791F482E090E099838883D5
:102730008CEF9FEFDF91CF911F910F91FF90EF9062
:10274000DF90CF90BF909F908F90089520910C03C1
:1027500030910D038217930738F082E090E099835F
:1027600088838EEF9FEFE6CF23E1289F6001299FAA
:10277000D00C1124EC0DFD1DE080F180E114F1047A
:1027800099F28281081748F78DE0089F8001112493
:10279000E00EF11EF70180819181892B29F6BB2083
:1027A000E1F2F7E0BF9E40011124C4010E94B11F75
:1027B000F70191838083E0910A03F0910B03EC0D04
:1027C000FD1D0190F081E02DE00FF11F80819181CE
:1027D000009739F482E090E0998388838DEF9FEF32
:1027E000A9CFA40170E060E00E94283680910A031E
:1027F00090910B03C80ED91EF60180819181080FBC
:10280000191FF801B28281E090E09983888390E0FB
:1028100080E090CFAF92BF92CF92DF92FF920F9362
:102820001F93CF93DF93EA01FC01E60FF71F82812C
:102830009381F48000910A0310910B030115110597
:1028400081F482E090E0998388838CEF9FEFDF91A1
:10285000CF911F910F91FF90DF90CF90BF90AF90DD
:10286000089520910C0330910D038217930738F0DF
:1028700082E090E0998388838EEF9FEFE8CF2FEF7F
:102880002F0D2C3FA8F723E1289F6001299FD00C32
:1028900011240C0D1D1DF80180819181892B89F671
:1028A000FDE0FF9E50011124C5010E94B11FF801F7
:1028B00091838083E0910A03F0910B03EC0DFD1DE1
:1028C00080819181009739F482E090E09983888338
:1028D0008DEF9FEFBCCFA50170E060E00E9428362D
:1028E000E0910A03F0910B03EC0DFD1DF28281E0F3
:1028F00090E09983888390E080E0A9CFCF92DF9227
:10290000EF92FF920F931F93CF93DF93860F971F42
:10291000FC010281138180910A0390910B03892BA2
:1029200081F082E090E0FA01918380838CEF9FEF49
:10293000DF91CF911F910F91FF90EF90DF90CF909B
:102940000895C801B0E0A0E00197A109B1098F3F47
:102950009F4FA105B10540F082E090E0FA0191831C
:1029600080838EEF9FEFE4CF7A0183E1809F600147
:10297000819FD00C1124C6010E94B11FEC01009769
:1029800041F482E090E0F701918380838DEF9FEF27
:10299000CFCFA60170E060E00E942836D0930B03F1
:1029A000C0930A0310930D0300930C0390E080E0A2
:1029B0002FEF3FEF41E061E070E08017910741F4B5
:1029C00081E090E0F7019183808390E080E0B0CFD8
:1029D0003A8B298B1B864C877E876D87188A1F86CA
:1029E00001966396EACFEF92FF921F93CF93DF9306
:1029F000EC0110E0F12CE12C6A811617B0F083E0B5
:102A0000689FB0011124AE014F5E5F4FC7010E9465
:102A10001620009721F02FEF3FEF3A8B298BDF91A3
:102A2000CF911F91FF90EF900895612FCE0185DC2B
:102A300061E070E00E945E1EE816F90608F47C0171
:102A40001F5FDACFF894209108033091090381E0E9
:102A50002115310509F080E0232B09F078940895C1
:102A60002F923F924F925F926F927F928F929F929E
:102A7000AF92BF92CF92DF92EF92FF920F931F938C
:102A8000CF93DF933C01660E771EF3018281938121
:102A90004C01B12CA12CC0910A03D0910B032097BB
:102AA00069F021E030E060910C0370910D0386170E
:102AB000970710F030E020E0232BD1F482E090E083
:102AC000FA01918380838EEF9FEFDF91CF911F9169
:102AD0000F91FF90EF90DF90CF90BF90AF909F90BD
:102AE0008F907F906F905F904F903F902F900895C0
:102AF00080922F0190923001A0923101B092320168
:102B000063E1689F9001699F300D1124C20FD31FAC
:102B1000F3018181833040F082E090E0FA019183FB
:102B2000808386EF9FEFD1CF2A012B813C81232B1D
:102B3000F1F4288139819F8191FF2EC0232B09F464
:102B40006FC020910F039A81422F490F5527551FBF
:102B5000BA0141E050E06138710514F050E040E006
:102B6000452B09F45DC02A87920F90930F03815083
:102B7000823008F481C066DF882309F4D8C0F301ED
:102B80008181813009F48DC008F47BC0823009F462
:102B9000C6C090E080E0ADC0232B09F441C0209175
:102BA0000E039A81E22FE90FFF27FF1F41E050E05B
:102BB000ED3FF10514F050E040E0452B89F12A8704
:102BC000920F90930E03D3CFA081B181A20FB31FB8
:102BD00011966C91060F111D0196295F3F4F8417C6
:102BE000950794F38D859E85089F1001099F300CF1
:102BF000189F300C1124C114D104D1F48F8184FFAB
:102C000017C00E94AC1EF5E02F0E311C21E082158A
:102C1000930508F420E0A701435F5F4F21110EC028
:102C200082E090E0F2019183808387EF9FEF4DCFA8
:102C30000E94AC1E2FEF221A320AE8CF88819981B8
:102C4000E80EF91EF70114830383FFEFCF1ADF0AA2
:102C50007A018A818C151D0409F00CF48CCFE8816F
:102C6000F981EE0DFF1D428150E030E020E010E0E0
:102C700000E090E080E0B3CFF12CE12CD12CC12C0E
:102C8000E8CF81E090E09C838B83E9DA882309F424
:102C900080CF81E090E00E94AA0D80E40E94B80DF0
:102CA00078CF89899A89019661F083E090E09C83CE
:102CB0008B8382E090E00E94AA0D80E40E94B20D16
:102CC00068CF8D819E812091250130912601821748
:102CD0009307D1F46091290170912A01AE014F5EF2
:102CE0005F4F80912701909128010E943521009724
:102CF000E1F2789422E030E0F20131832083892BE5
:102D000099F08DEF9FEFE1CE89288A288B2869F60C
:102D1000892B59F6CE0167DE188A1F86E8CF82E03C
:102D200090E09C838B8335CF90E080E0CECE82E034
:102D300090E0F2019183808385EF9FEFC6CE8F9262
:102D40009F92AF92BF92CF92DF92EF92FF920F933A
:102D50001F93CF93DF93EA018C01060F171FF80131
:102D60008181833098F082E090E09983888386EFB8
:102D70009FEFDF91CF911F910F91FF90EF90DF9028
:102D8000CF90BF90AF909F908F90089580910A034D
:102D900090910B03892B61F081E090E020910C036E
:102DA00030910D03232B11F490E080E0892B39F44E
:102DB00082E090E0998388838EEF9FEFDACF42DE46
:102DC000882309F4DFC0F8018181813009F495C0BE
:102DD000E8F0823099F420910C0330910D03E091DA
:102DE0000A03F0910B0390E080E041E050E02817E7
:102DF000390709F0BDC033DA811117C0789481E03A
:102E000090E09983888390E080E0B3CF20910C0319
:102E100030910D03E0910A03F0910B0390E080E004
:102E200041E050E02817390741F481E090E00E942A
:102E3000AA0D80E40E94B80DE1CF63817481672BF5
:102E400011F05483438301967396ECCFE0910A030B
:102E5000F0910B03E00FF11F238134812230310503
:102E6000D9F4218932892F3F3F4FB1F42581368132
:102E700040912501509126012417350761F5AF01D6
:102E80004F5E5F4F6091290170912A018091270167
:102E9000909128010E943521EFEFCE1ADE0AEE0A4A
:102EA000FE0A0D5E1F4F40910C0350910D0370E020
:102EB00060E0C416D506E606F7063CF5009731F249
:102EC0007894892B09F49BCF82E090E099838883E2
:102ED0008DEF9FEF4ECFC114D104E104F104E1F670
:102EE000232BD1F6CF017FDDE0910A03F0910B0394
:102EF000E00FF11F108A1786CFCF10E000E090E0BE
:102F000080E0C12CD12C7601CECF0097C9F610E01D
:102F100000E0812C912C540183E0E82EF12C1AC0A2
:102F2000E0910A03F0910B03E00FF11F838194817C
:102F3000029749F4F482E38282E090E00E94AA0DB5
:102F400080E40E94B20DFFEF8F1A9F0AAF0ABF0AFA
:102F50000D5E1F4F80910C0390910D03B0E0A0E037
:102F600088169906AA06BB06DCF290E080E0A8CF9E
:102F7000638174816230710511F454834383019637
:102F8000739635CF82E090E09983888385EF9FEF39
:102F9000F0CE0097B9F48FEFFB01808320912F01D1
:102FA0003091300143E1429FC001439F900D1124B5
:102FB000E0910A03F0910B03E80FF91F8285FB01F2
:102FC000818308950C94650D88E090E0FA01918367
:102FD000808390E080E00895109209031092080326
:102FE000EAE0F3E086E0DF011D928A95E9F786E7E3
:102FF00093E190930703809306030895809106035D
:103000009091070308952F923F924F925F926F9293
:103010007F928F929F92AF92BF92CF92DF92EF9268
:10302000FF920F931F93CF93DF93CDB7DEB72F9708
:103030000FB6F894DEBF0FBECDBFF894E091080341
:10304000F09109033196F0930903E0930803789413
:1030500040900A0350900B034114510409F40CC230
:10306000E0910C03F0910D03EF2B09F405C22D87BD
:1030700049875A876B877C8798878F831201B12C89
:10308000A12C10E000E080910C0390910D03A81694
:10309000B90618F40115110529F1F8948091080377
:1030A0009091090301979093090380930803789402
:1030B000C8012F960FB6F894DEBF0FBECDBFDF91CB
:1030C000CF911F910F91FF90EF90DF90CF90BF9025
:1030D000AF909F908F907F906F905F904F903F90B8
:1030E0002F9008957101E418F508D10117968C917D
:1030F000179781FD54C013968D919C911497039757
:1031000009F04DC015968D919C91EF81F8858E1731
:103110009F0709F044C0B50190E080E07ED48A8327
:1031200020910A0330910B033D832C833D8533238B
:1031300009F44CC04C815D81452B09F49AC1809102
:103140000C0390910D03A816B90608F092C1C501B1
:10315000D0D88823E9F06C817D816E0D7F1D7D8341
:103160006C83DB011F968D919C91892B89F0D12C6A
:10317000C12CF12CE12CAC81BD8112968C9112975F
:103180008E151F0409F094F450961C921E921F97FE
:103190002A81222321F0B50190E080E040D43FEF66
:1031A000A31AB30A43E1240E311C6DCFAC81BD815B
:1031B000ED91FC91EC0DFD1D858196810BD7BFEF44
:1031C000EB1AFB0AEDE0CE0ED11CD5CFEC81FD81D0
:1031D000309709F44EC180910C0390910D03A8160D
:1031E000B90608F046C1EE0DFF1DFF87EE87C50149
:1031F00080D88B83882339F1AE85BF851F968D914A
:103200009C915097019621E01D964D915C918417F9
:10321000950709F020E02E831982712C10E000E060
:10322000AE85BF8512968C91781608F45DC0EE8548
:10323000FF85878590890196658576850E94CA35C8
:10324000908B8787A5CFB1E0BE83E6CF9924939476
:103250006BC087D6F6019683858382C0D601ED9038
:10326000FC90B7E06B9EE00CF11C1124F701638128
:10327000748180818F3F61F121E030E002C0220F34
:10328000331F8A95E2F7C901092E000CAA0BBB0B6C
:10329000FB01408151816281738184239523A623A0
:1032A000B72321E0892B8A2B8B2B09F420E0D40152
:1032B0002C93D70111968C91F60123853485820FCA
:1032C000932F911D880E991E1486138663949BC0BC
:1032D000418150E0C4010E941F36EBCF998206EF76
:1032E0001FEFC5C01982C3C0F981F111A0CFEDE075
:1032F0007E9E70011124AE85BF85CD90DC90CE0CF2
:10330000DF1C13D49D838C83BB81BB2309F49ECF28
:1033100081E0EE85FF8527853089232B09F080E049
:10332000982E882309F458C0672D8E859F8505D86F
:10333000D60118969C938E93179761E070E0BED4E7
:10334000EE85FF85218932892F3F320709F481CF2D
:10335000BC01C901CBD7D60116969C938E931597C5
:10336000D60115968D919C911697009709F4B6CFCA
:10337000EC81FD818E0F9F1F1A969C938E93199757
:10338000AE85BF85ED91FC911197EE0EFF1EF70102
:1033900021853285148613861A968C91870DD90162
:1033A0008D93711016C0EE85FF85878184FF11C053
:1033B00049855A856B857C85F901418352836383F6
:1033C0007483F701838594850496A80FB91F14862A
:1033D0001386F701B287A187D60115968D919C912E
:1033E0001697892B09F443C0EE85FF852581368128
:1033F00080912501909126012817390779F01996B7
:103400008D909C90612CD60112968C911297681623
:1034100008F424CF1A969C928E921997BE81BB23F2
:1034200009F460CF61E070E0F6018781908546D4B1
:10343000D6011796ED90FC90189715964D915C91DA
:10344000E1E0F0E0BA81BB2311F0F0E0E0E00C81B4
:103450001D819C01B501882799278E1B9F0B68D37E
:103460008C01892B21F0F60185819681B3D5739467
:10347000D7CE0FEF1FEF8CCE10E000E00ECE2F92D4
:103480003F924F925F926F927F928F929F92AF92F4
:10349000BF92CF92DF92EF92FF920F931F93CF9341
:1034A000DF9380910A0390910B0310E000E0892BD9
:1034B000A9F0C8DA0AEF1FEF882381F020900C03EF
:1034C00030900D03C0910A03D0910B03D12CC12C75
:1034D00010E000E02C143D04A9F47894C801DF91B9
:1034E000CF911F910F91FF90EF90DF90CF90BF9001
:1034F000AF909F908F907F906F905F904F903F9094
:103500002F900895C6010E947911882309F18B81BB
:103510009C810397E9F48F859889892BC9F0B601BE
:1035200090E080E07AD221E030E0882311F030E0B2
:1035300020E044245524421A530AB12CA12C912C8A
:10354000812C8A818815190409F038F4188A1F869D
:103550004FEFC41AD40A6396BDCFE881F981EA0D12
:10356000FB1D85819681892BA1F161E070E0878147
:103570009085A4D33C01D9D28C01E881F981EA0D70
:10358000FB1D8185928525813681200F311FAC017D
:10359000421B530B9A0147815085421B530B70E02D
:1035A00060E00E942836E881F981EA0DFB1DE78082
:1035B000F084458156819301B601C201B9D28C01D4
:1035C000892B39F0E881F981EA0DFB1D858196810F
:1035D00001D55FEF851A950A8DE0A80EB11CB1CF19
:1035E00031CA789408952F923F924F925F926F92D2
:1035F0007F929F92AF92BF92CF92DF92EF92FF9213
:103600000F931F93CF93DF9300D000D000D0CDB79E
:10361000DEB700910A0310910B03992493940115CE
:10362000110509F43EC0A0900C03B0900D030ADA16
:10363000982E8823B1F110920B0310920A03109276
:103640000D0310920C0310920E0310920F038FEFD4
:103650009FEFDC0180932F0190933001A093310103
:10366000B093320178947AD31E830D83C12CD12C70
:103670007601C501B0E0A0E089839A83AB83BC8367
:1036800022242A94322C89819A81AB81BC81C8166C
:10369000D906EA06FB06F4F0C8019CD480E40E9437
:1036A000B80D892D26960FB6F894DEBF0FBECDBF9C
:1036B000DF91CF911F910F91FF90EF90DF90CF900E
:1036C000BF90AF909F907F906F905F904F903F9092
:1036D0002F900895AD81BE8115968D919C9116977E
:1036E000209125013091260182179307D1F451963C
:1036F0008D919C91E9D5ED81FE8180819181B12CE4
:10370000A12C412C512C3201892B89F5BFEFCB1A0A
:10371000DB0AEB0AFB0AED81FE817396FE83ED83E3
:10372000B2CFC114D104E104F10429F7892B19F7B0
:10373000ED81FE81818992898F3F980709F024D518
:10374000AD81BE8152963C922E925197D4CF8A0D74
:103750009B1DDC018D919C91009709F03BD4BFEF3C
:103760004B1A5B0A6B0A7B0AEDE0AE0EB11CAD8111
:10377000BE818D919C91119712964C9150E070E012
:1037800060E044165506660677060CF323D4BECFD8
:10379000CF93DF93EA0127DF811109C082E090E037
:1037A0009983888385EF9FEFDF91CF91089581E022
:1037B00090E00E94AA0D81E090E09983888390E0D8
:1037C00080E0F2CF10DF10920703109206030895F5
:1037D00042E050E068EF71E00C94C80DFF920F9347
:1037E0001F93CF93DF938A01EC01C60FD71FF98097
:1037F000B4D20897F816190671F068F082E090E0EC
:10380000F801918380838EEF9FEFDF91CF911F911D
:103810000F91FF9008956C817D818E819F814B81F6
:103820000E945F10811108C082E090E0F80191834E
:10383000808384EF9FEFE9CFF9800E945A104F2DCB
:1038400050E0BE01685F7F4F0E941F3689810E9451
:10385000C91081E090E0F8019183808390E080E0DE
:10386000D4CFDF92EF92FF920F931F93CF93DF930A
:103870008A01EC01C60FD71F0E945A107C01D98023
:103880006CD2DD2059F0029721E030E0D8161906FD
:1038900019F010F030E020E0232B79F482E090E082
:1038A000F801918380838EEF9FEFDF91CF911F917D
:1038B0000F91FF90EF90DF900895EF2841F482E0A0
:1038C00090E0F8019183808384EF9FEFEECFF98041
:1038D0000E945A104F2D50E0BE016E5F7F4F0E9434
:1038E0001F3689810E94C91081E090E0F801918320
:1038F000808390E080E0D9CF88EE9BE19093110324
:1039000080931003089580911003909111030895FE
:103910000895FC0111821082938382830895DB0154
:103920001D921C92DC011296ED91FC91139771830C
:10393000608313967C936E9312970895FC018081A7
:103940009181DB018D939C93A081B181109741F00F
:103950008D919C9191838083892B11F4F383E28371
:103960000895FC0180819181DB018D939C93892BCB
:1039700011F473836283718360830895FC01118263
:103980001082938382830895CF93DF9300D0CDB7C5
:10399000DEB71A821982F894BE016F5F7F4F87E10C
:1039A00093E0CCDF89819A81009709F013D3898154
:1039B0009A81892B89F7BE016F5F7F4F8BE193E07E
:1039C000BDDF89819A81009709F004D389819A81AA
:1039D000892B89F778940F900F90DF91CF910895FC
:1039E000CF93DF9300D0CDB7DEB71A821982F89457
:1039F000BE016F5F7F4F83E193E0A0DF89819A81F1
:103A0000009709F0E7D289819A81892B89F7789408
:103A10000F900F90DF91CF91089581E0089590E08D
:103A200080E00895EF92FF920F931F93CF93DF935F
:103A300000D0CDB7DEB71A8219828091120307EF4A
:103A40001FEF8823A1F1F894BE016F5F7F4F8BE1D8
:103A500093E074DF789489819A81EE24E394F12CC9
:103A6000892B51F4F894BE016F5F7F4F87E193E09B
:103A700065DF7894F12CE12C89819A810EEF1FEF9C
:103A80000097A9F0FC014281538164E070E072D696
:103A90008C01892B61F0F89469817A81C701880FC4
:103AA000991F880F991F895E9C4F5BDF7894C8012E
:103AB0000F900F90DF91CF911F910F91FF90EF909A
:103AC00008950F931F93CF93DF9300D000D0CDB70D
:103AD000DEB71C821B821A8219828091120307EFC3
:103AE0001FEF8823C1F0AE014D5F5F4F64E070E0CF
:103AF000CE010196B2D68C01892B69F4E981FA8155
:103B00008B819C8193838283F89469817A8183E19C
:103B100093E005DF7894C8010F900F900F900F90FD
:103B2000DF91CF911F910F910895B7D70496089513
:103B30008F929F92AF92BF92CF92DF92EF92FF92BD
:103B40000F931F93CF93DF9300D0CDB7DEB71A82C8
:103B50001982BC016F5F7F4F6330710598F0AA2412
:103B6000AA94BA2CC5010F900F90DF91CF911F91AD
:103B70000F91FF90EF90DF90CF90BF90AF909F900C
:103B80008F9008954115510551F3480159018A015B
:103B90006C01CBDF8815990511F7E114F104F9F2F6
:103BA0008E0D9F1DA816B906D0F2809112038823AE
:103BB000F1F0F894B501645071099701AE014F5FBF
:103BC0005F4FC8010496DED65C01892B71F48981B0
:103BD0009A81F80193838283C601880F991F880F09
:103BE000991FB801895E9C4F9ADE7894BBCF87EF0E
:103BF000A82EBB24BA94B6CFAF92BF92CF92DF92D9
:103C0000EF92FF920F931F93CF93DF9300D0CDB726
:103C1000DEB71A821982892B09F047C06115710538
:103C200009F443C04115510509F43FC02115310580
:103C300009F43BC001151105C1F1809112038823DD
:103C4000B9F179016A015B01F894BE016F5F7F4FA2
:103C500083E193E073DE789489819A81009759F12A
:103C6000DC0112966D917C91A8010496A4D68C017A
:103C7000E981FA81D501ED93FC93828193810496C9
:103C8000F6019183808351DFD7018D939C93C80106
:103C90000F900F90DF91CF911F910F91FF90EF90B8
:103CA000DF90CF90BF90AF9008950FEF1FEFEFCF51
:103CB00007EF1FEFECCF0EEF1FEFE9CFCF93DF93AE
:103CC000EC01672B71F4F2D68C179D0760F0E5D6F6
:103CD0002496C80FD91FE4D68C0F9D1FDF91CF917A
:103CE0000895E1D6F1CF90E080E0F8CF0F931F93D5
:103CF000CF93DF932091120321112BC08B01EC0194
:103D000087E193E006DE8BE193E003DE83E193E05D
:103D100000DE97D00097C1F4C9D670E060E0CEDF36
:103D200043E351E062E070E081D1009769F4809153
:103D3000330190913401CCD6B801CE0101D5009762
:103D400019F421E020931203DF91CF911F910F917D
:103D5000089584EF9FEFF8CFA6C6A8C6CF93DF9350
:103D6000A8D6EC01892B11F40FDE3ADECE01DF91EB
:103D7000CF910895CF93DF939CD6EC01892B09F462
:103D800003DECE01DF91CF910895809133019091B0
:103D900034010895CF93DF9380911203D0E0C0E007
:103DA0008823D1F09AD6EC01892BB1F4EDDD18DE31
:103DB0008091330190913401E7D1E8D2EC01892B55
:103DC00059F487E193E0DADD8BE193E0D7DD83E11D
:103DD00093E0D4DD10921203CE01DF91CF910895CC
:103DE000EF92FF920F931F93CF93DF93EC017A0131
:103DF0008B010F5F1F4F0E9DA0010F9D500D1E9D4B
:103E0000500D112470E060E00E94283690E080E0C0
:103E1000F0E0E0E02FEFE816F90639F4DF91CF91FA
:103E20001F910F91FF90EF9008951A8219822883B5
:103E3000309711F0D283C1830196FE01C00FD11FCC
:103E4000EACFCF92DF92EF92FF920F931F93CF931F
:103E5000DF9304E514E00C7F43E050E065E371E09C
:103E60008BE391E01AD485E3E82E81E0F82E9BE302
:103E7000C92E91E0D92ECBECD4E0D7014D915D91C4
:103E80007D01F601619171916F01198308835D8352
:103E90004C835B834A837F836E839B012F5F3F4FFD
:103EA000249FC001259F900D349F900D1124998768
:103EB00088870115110511F0C80192DF8885998561
:103EC000080F191F2A96FBE3EF16F1E0FF06A9F68B
:103ED000E1E2F3E080E391E0DF019C011D922150DB
:103EE0003040E1F71092200310921F031092EA0471
:103EF0001092E9041092EE041092ED041092EC047A
:103F00001092EB041092F0041092EF041092F2045D
:103F10001092F1041092F4041092F3041092F80439
:103F20001092F7041092F6041092F5041092FA041D
:103F30001092F9041092FC041092FB041092C80431
:103F40001092C7041092CA041092C90490E080E055
:103F5000DF91CF911F910F91FF90EF90DF90CF9065
:103F600008950097F1F0F894ABE3B1E0EBECF4E0E6
:103F700030E020E04D915D9148175907A8F042814B
:103F800053814115510581F08AE0829FF001839FA2
:103F9000F00D1124E553FB4F80819181009759F476
:103FA000789490E080E008952F5F3F4F3A96233059
:103FB000310501F7F5CFDC0111966D917C9171838C
:103FC00060834150510953834283FC012193CF0107
:103FD00078940895009749F1DC018E91853041F481
:103FE000E091C904F091CA043097F9F0CD01099429
:103FF0008530D8F4282F30E0F8948FEF8C938AE046
:10400000829FF001839FF00D1124E553FB4F8081C7
:10401000918112969C938E931197B183A083828194
:10402000938101969383828378940895CF92DF924F
:10403000EF92FF920F931F93CF93DF939C0184E243
:1040400093E08C7F4115510509F49BC02115310582
:1040500009F497C06115710509F493C07A01AB01A9
:10406000B9016D5F7F4F6C7F9B012F5F3F4F249F96
:104070008001259F100D349F100D1124F89420917C
:10408000E9043091EA04232B59F42091F104309192
:10409000F2042115310569F12017310708F058C0E5
:1040A0002091F3043091F404232B91F42091F10436
:1040B0003091F204820F931F2091FB043091FC0495
:1040C0002115310509F441C02017310708F056C009
:1040D0007894CFEFDFEF86EF9FEFF701D183C083B6
:1040E000DF91CF911F910F91FF90EF90DF90CF90D4
:1040F0000895C3E0D0E0C0901F03D09020032DE2CC
:1041000031E02C193D092017310710F32AE02C9FCC
:10411000F0012D9FF00D1124E553FB4F9183808317
:104120005583448353834283778366831187008753
:10413000009709F055DE0C0D1D1D10932003009310
:104140001F03789490E080E0C8CFC4E0D0E0D3CFE4
:10415000C3E0D0E02AE02C9FF0012D9FF00D112448
:10416000E553FB4F9183808355834483538342837C
:1041700077836683009729F333DEE3CFC4E0D0E092
:10418000E9CF8FEF9FEFACCF9C010397029708F028
:1041900069C0F89484E09AE0482F50E0241735076E
:1041A0000CF44DC091E08AE0829FF001839FF00DF6
:1041B0001124E553FB4F1182108215821482138261
:1041C0001282178216829923B1F18091E9049091AD
:1041D000EA04892BA9F42091F1043091F20421150D
:1041E000310571F080911F0390912003821B930B86
:1041F0009093200380931F031092F2041092F10415
:104200008091F3049091F404892BA9F42091FB048C
:104210003091FC042115310571F080911F039091BC
:104220002003821B930B9093200380931F03109213
:10423000FC041092FB04789490E080E00895949F31
:10424000F001959FF00D1124E553FB4F4081518102
:10425000452B31F440855185452B11F481509CCF7D
:1042600090E0A1CF8FEF9FEF08954115510549F1DF
:10427000009739F16115710521F1F8942091C70477
:104280003091C804232BB9F42091C9043091CA0499
:10429000232B89F49093C8048093C7047093CA04B5
:1042A0006093C904789425E030E090E080E0FA0162
:1042B00031832083089578942FEF3FEF86EF9FEFAF
:1042C000F6CF8FEF9FEF0895059769F4F894109259
:1042D000C8041092C7041092CA041092C9047894BA
:1042E00090E080E008958FEF9FEF089561157105CC
:1042F00019F4F0E0E0E011C08530910581F4E0911F
:10430000C704F091C8043097A1F3CB010196099539
:10431000009779F3FC0185E08193CF0108959C011A
:10432000235031092230310520F72AE0289FD0019F
:10433000299FB00D1124A553BB4F2D913C9111978E
:10434000232BB9F216962D913C9117972617370714
:1043500080F2F89412962D913C9113972115310516
:1043600029F0ED91FC911197309711F47894C1CF19
:104370004181528111965C934E93215031091396DD
:104380003C932E93129781937894C7CFE1E5F4E0A4
:1043900086E7DF011D928A95E9F7E1E2F3E080E329
:1043A00091E0DF019C011D9221503040E1F7109215
:1043B000200310921F03EBECF4E082E3DF011D9277
:1043C0008A95E9F7E7ECF4E084E0DF011D928A9535
:1043D000E9F790E080E00895CF93DF93C091410129
:1043E000D0914201CF3FDC0759F447D4909342016A
:1043F0008093410197FF09C0D0934201C0934101CE
:1044000084EF9FEFDF91CF91089590E080E0FACFA5
:104410008230910528F48093FD0490E080E00895B7
:104420008FEF9FEF08954F925F926F927F92AF92BE
:10443000BF92CF92DF92EF92FF920F931F93CF9391
:10444000DF9300D0CDB7DEB71A821982009709F446
:1044500079C06115710509F475C020914101309151
:10446000420107EF1FEF2F3F3F4F09F445C06B019B
:104470005C01412C512C3201F12CE12C10E000E0C8
:104480009E012F5F3F4FA6014E195F09B5016E0DCA
:104490007F1D80914101909142014CD4892B09F0FC
:1044A0004BC089819A81009741F4E114F10429F409
:1044B0002091FD04222309F442C0E80EF91EEC14F9
:1044C000FD04D0F480E8481684E858068EE16806BA
:1044D000710420F560E070E0CB010E942C2C2AE0F2
:1044E000420E511C611C711C0A3F4FEF140721F052
:1044F000043F8FEF1807A1F4C8010F900F90DF91D0
:10450000CF911F910F91FF90EF90DF90CF90BF90D0
:10451000AF907F906F905F904F90089501EF1FEFE5
:1045200081E090E0013F2FEF120711F090E080E072
:10453000892B09F4A5CFE0CF04EF1FEFDDCF0AEF01
:104540001FEFDACF0FEF1FEFD7CF4F925F926F922F
:104550007F92AF92BF92CF92DF92EF92FF920F9332
:104560001F93CF93DF9300D0CDB7DEB71A821982A5
:10457000009709F479C06115710509F475C020919F
:1045800041013091420107EF1FEF2F3F3F4F09F4E8
:1045900045C06B015C01412C512C3201F12CE12C06
:1045A00010E000E09E012F5F3F4FA6014E195F090A
:1045B000B5016E0D7F1D809141019091420175D32F
:1045C000892B09F04BC089819A81009741F4E1144D
:1045D000F10429F42091FD04222309F442C0E80EDD
:1045E000F91EEC14FD04D0F480E4481682E4580669
:1045F0008FE06806710420F560E070E0CB010E9456
:104600002C2C2AE0420E511C611C711C0E3F4FEFF6
:10461000140721F0043F8FEF1807A1F4C8010F9091
:104620000F90DF91CF911F910F91FF90EF90DF904E
:10463000CF90BF90AF907F906F905F904F90089514
:1046400002EF1FEF81E090E0023F2FEF120711F021
:1046500090E080E0892B09F4A5CFE0CF04EF1FEFB5
:10466000DDCF0EEF1FEFDACF0FEF1FEFD7CF809127
:104670004101909142018F3F980749F04AD3892B1D
:1046800049F48FEF9FEF909342018093410190E0B6
:1046900080E0089584EF9FEF0895CF92DF92EF922C
:1046A000FF920F931F93CF93DF9321E041155105A4
:1046B00009F020E04150510921112CC0DC01FB011F
:1046C000D12CC12C21E022C03FEFC31AD30A7D01B7
:1046D0000D911D91E701EA80FB80E016F106A8F438
:1046E00020813181E280F380F182E0823383228372
:1046F000ED90FC9011979D0122503109E901F9825A
:10470000E88211961C930E9320E03296C416D506CB
:10471000D8F2D2CFDF91CF911F910F91FF90EF9000
:10472000DF90CF900895FC01680F791F90E080E042
:10473000E617F70709F408952191820F911DF8CF2C
:104740002091FE04211113C047DE009791F41092CE
:1047500004051092030510920205109201051092B3
:1047600000051092FF0421E02093FE04089584EFD9
:104770009FEF0895AF92BF92CF92DF92EF92FF9298
:104780000F931F93CF93DF93009709F460C04630D7
:10479000510508F45CC02091FE04C7EFDFEF22232F
:1047A00009F449C08C01060F171FF801C080D180A1
:1047B000C114D10409F44EC096012A5F3F4F42173D
:1047C000530708F447C07C018091030590910405CC
:1047D00093838283B6016C5F7F4F5801A60EB71E8C
:1047E000C801A1DFF5019183808364E070E0C80116
:1047F0001ADEEC01892BF9F481E090E009DEB601C4
:10480000C801049610DEEC01892B91F462E070E09F
:10481000C50109DEEC01892B59F4C701DBDB80916E
:104820000305909104050196909304058093030578
:1048300090E080E0EDDDCE01DF91CF911F910F91EF
:10484000FF90EF90DF90CF90BF90AF900895CFEFA3
:10485000DFEFF1CFC9EFDFEFEECF6F927F928F9254
:104860009F92AF92BF92CF92DF92EF92FF920F93FF
:104870001F93CF93DF9300D000D0CDB7DEB7009762
:1048800009F47AC04115510509F476C02091FE045F
:1048900007EF1FEF222309F44DC03A017B015C01B1
:1048A00064E070E0CE01019650DE8C01892B09F0A6
:1048B00041C009811A810115110509F45AC0480146
:1048C00086E0880E911CB701680D791D8091430127
:1048D000909144010BDD6C01009709F450C0A701D1
:1048E00070E060E00E94283689819A81AB81BC81AA
:1048F000EC0CFD1CF70181939193A193B1937F017F
:1049000081E090E085DDB801C7011FDE892B31F51C
:1049100062E070E0C701800F911F17DE8C01892BC8
:10492000E9F490E080E074DDF501D182C082F3010A
:1049300091828082C8010F900F900F900F90DF91AD
:10494000CF911F910F91FF90EF90DF90CF90BF908C
:10495000AF909F908F907F906F90089590E080E04F
:1049600057DDF50111821082F30111821082C60118
:1049700031DB09EF1FEFDECF0FEF1FEFDBCF06EFCD
:104980001FEFD8CF0097A1F04115510589F02115EF
:10499000310571F0F90136966E177F0748F0DC019A
:1049A0002D933C93DA01ED93FC9390E080E0089521
:1049B0008FEF9FEF0895AF92BF92CF92DF92EF9269
:1049C000FF920F931F93CF93DF93009709F45FC07B
:1049D0004115510509F45BC06530710508F457C0F5
:1049E0002091FE04C7EFDFEF222391F1DC01CD908F
:1049F000DC9011971296ED91FC9196012A5F3F4F42
:104A0000C9EFDFEF2617370719F5C091FF04D091E2
:104A10000005209749F521E030E030930005209310
:104A2000FF047A018C01F0930205E0930105560121
:104A3000B4E0AB0EB11CB50176DE0A0D1B1DF8010A
:104A4000208131818217930729F5D701CD92DC921D
:104A5000CE01DF91CF911F910F91FF90EF90DF90EA
:104A6000CF90BF90AF90089520910105309102053D
:104A70002F5F3F4FCCEFDFEFE217F30790F2CBEF62
:104A8000DFEF2E173F0768F2D0E0C0E0CACFCFEFCC
:104A9000DFEFDECFC3EFDFEFDBCF84E090E0089500
:104AA00082E090E008958CEF9FEF089580E290E01F
:104AB00008951092040510920305109202051092B9
:104AC0000105109200051092FF0490E080E0089527
:104AD000909344018093430108958091FE048823BC
:104AE00091F0C5DD009789F410920405109203053A
:104AF0001092020510920105109200051092FF0419
:104B00001092FE04089590E080E00895009749F027
:104B10006115710531F0FC0111821082FB011182D7
:104B200010820895F3CF089526E030E040E855E282
:104B300060E070E090E080E002C095D0FFCF10927E
:104B40000605109205058930910540F585559A4D69
:104B5000FC010C940036B425BE25C825CF25D225EE
:104B6000D525D825DB25E12581E090E09093060549
:104B70008093050583E195E00C94322F82E090E06C
:104B8000909306058093050584E695E00C94153016
:104B900084E090E09093060580930505089588E0F1
:104BA00090E0F8CF80E190E0F5CF80E290E0F2CFA6
:104BB00080E490E0EFCF80E890E09093060580934A
:104BC000050580910505909106059160E3CF81E090
:104BD00096E00C9410351F920F920FB60F9211248D
:104BE0002F933F934F935F936F937F938F939F93F5
:104BF000AF93BF93EF93FF9387EF92EC9093950061
:104C000080939400ACD0FF91EF91BF91AF919F91B1
:104C10008F917F916F915F914F913F912F910F9065
:104C20000FBE0F901F90189587EF92EC9093950010
:104C300080939400A1E7B0E08C918E7F8C93E0E9A3
:104C4000F0E080818C7F8083E1E9F0E08081877EE5
:104C5000808380818560808380818D7F80838C913B
:104C600081608C930895E1E7F0E0808190819E7FE0
:104C700090838170089581E0089525D626E030E084
:104C800040E052EC61E070E090E080E058DF83E1CA
:104C900095E00E94652E892B29F083E195E00E9422
:104CA000732EF5CF90E080E00895CF92DF92EF92DF
:104CB000FF920F931F93CF93DF936B017A01E9016A
:104CC0001982188283E195E00E94652E892BB1F04C
:104CD0008601888199818E159F0580F483E195E096
:104CE0000E94732E8F3F9807A1F3F80181938F01E3
:104CF00088819981019699838883EBCF90E080E049
:104D0000DF91CF911F910F91FF90EF90DF90CF90A7
:104D1000089568EE73E080E090E09ED583E195E031
:104D2000D4D7892B21F083E195E0DDD7F7CF90E050
:104D300080E008950F931F93CF93DF93EA018901D9
:104D4000F89483E195E0DBD77894F801D183C083B0
:104D500090E080E0DF91CF911F910F910895CF9265
:104D6000DF92EF92FF928091070591E0980F909368
:104D70000705882369F021E030E03093090520938E
:104D8000080580930705FF90EF90DF90CF9008957E
:104D90007894E0917E01F0917F01C688D788E08CFD
:104DA000F18C0E94A604B701A60190E080E00E9469
:104DB0001804F894809107058150E3CFCF93DF93D7
:104DC00010927F0610927E067ED501DFADDEC09187
:104DD0007E01D0917F011982188268E077E080E03F
:104DE00090E00E949B0470E060E090E080E00E9410
:104DF0001B03009709F038C00E943706F894789496
:104E00008A819B81BC01685F7F4F0E941E03892BB2
:104E100059F46FEF7FEFCB010E94AE030E9495041F
:104E2000882311F081E08E8FF894FEDE0E949804B2
:104E3000882311F080E008C00E9495048111FACF08
:104E400081E09E8D9111F6CF80937E0678947894C0
:104E500080917E0681110BC00E9410070E947A0487
:104E60006CDEF89490E080E0DF91CF9108950E948D
:104E700078040E949804882389F081E080937F065B
:104E800090917F0681E0911180E080937E06809171
:104E90007F068111E8DEEFDE46DEDACF0E94950460
:104EA0008111EBCF81E09E8D9111E8CF80E0E6CFBC
:104EB00040914D0150914E0160914F017091500110
:104EC000FC01408351836283738308954F925F9204
:104ED0006F927F928F929F92AF92BF92CF92DF920A
:104EE000EF92FF920F931F93CF93DF9300D000D0E8
:104EF00000D01F92CDB7DEB75F834E838901DB01FF
:104F00002D913D914D915C91FC0160817181828177
:104F1000938177D16B017C0120916501309166010D
:104F20004091670150916801C5D369837A838B836F
:104F30009C83209161013091620140916301509105
:104F40006401C701B601B6D3D8012D913D914D91B1
:104F50005C9158D16B017C01409045015090460115
:104F60006090470170904801AC019B01C301B20100
:104F7000ADD187FF73C0A3019201C701B60141D132
:104F80004B015C01EE81FF8140825182628273821B
:104F9000C0905501D0905601E0905701F090580113
:104FA000A5019401C701B60191D187FF86C0F09198
:104FB0005D01FE8329813A814B815C81C701B60185
:104FC00085D187FF7EC090915F019D83A5019401EB
:104FD000C701B6017BD1882381F0BE81ED81BE136C
:104FE0000CC08091510190915201A0915301B09158
:104FF000540189839A83AB83BC83209159013091FA
:105000005A0140915B0150915C0169817A818B81E9
:105010009C8150D39B01AC01D8016D917D918D9104
:105020009C91F0D0F80160837183828393832796EB
:105030000FB6F894DEBF0FBECDBFDF91CF911F91A9
:105040000F91FF90EF90DF90CF90BF90AF909F9027
:105050008F907F906F905F904F900895409049019E
:1050600050904A0160904B0170904C01A70196014D
:10507000C301B2012BD1812C912C540118163CF4A0
:10508000A3019201C701B601BCD04B015C01A7018D
:105090009601C301B2010AD3181644F4AE81BF8150
:1050A0004D925D926D927C92139772CFEE81FF814B
:1050B000C082D182E282F3826BCF80915E018E83C7
:1050C00079CFA0916001AD8381CFFB019183808373
:1050D00008958DD060938C0670938D0680938E0614
:1050E00090938F0689D06093800670938106809399
:1050F00082069093830667D0609388067093890632
:1051000080938A0690938B0663D060938406709395
:10511000850680938606909387065FD060939006FD
:105120007093910680939206909393065BD0609360
:10513000940670939506809396069093970608952B
:10514000CF92DF92EF92FF92CF936B017C01AC0183
:105150009B016091840670918506809186069091EE
:105160008706B4D0C1E0882369F0A7019601609159
:105170009406709195068091960690919706A6D018
:105180008111C0E08C2FCF91FF90EF90DF90CF90F6
:1051900008950F931F938B019C01002711272078FE
:1051A0003F770115110520483F4749F4AB01BC0189
:1051B0006F77772781E0452B462B472B09F480E05A
:1051C0001F910F91089560E070E080E89FE70895D7
:1051D00060E070E080E89FE7089560E070E080E8BC
:1051E0009FEF089560E070E080E89FEF089560E031
:1051F00070E080EC9FEF089560E070E080EC9FEF3E
:1052000008955058BB27AA270ED0FFC1F0D130F027
:10521000F5D120F031F49F3F11F41EF4E5C10EF4F6
:10522000E095E7FBB2C1E92F01D280F3BA1762071C
:1052300073078407950718F071F49EF530C20EF4D9
:10524000E0950B2EBA2FA02D0B01B90190010C0196
:10525000CA01A0011124FF27591B99F0593F50F4AE
:10526000503E68F11A16F040A22F232F342F442706
:10527000585FF3CF469537952795A795F0405395FE
:10528000C9F77EF41F16BA0B620B730B840BBAF0CE
:105290009150A1F0FF0FBB1F661F771F881FC2F739
:1052A0000EC0BA0F621F731F841F48F4879577954D
:1052B0006795B795F7959E3F08F0B3CF9395880F04
:1052C00008F09927EE0F9795879508953AD108F43D
:1052D00081E008950CD099C191D140F088D130F08F
:1052E00021F45F3F19F051C15111DAC17DC19ED146
:1052F00098F39923C9F35523B1F3951B550BBB279D
:10530000AA2762177307840738F09F5F5F4F220F49
:10531000331F441FAA1FA9F333D00E2E3AF0E0E842
:1053200030D091505040E695001CCAF729D0FE2F8E
:1053300027D0660F771F881FBB1F26173707480720
:10534000AB07B0E809F0BB0B802DBF01FF279358D6
:105350005F4F2AF09E3F510568F017C1A1C15F3F22
:10536000ECF3983EDCF3869577956795B795F795BE
:105370009F5FC9F7880F911D9695879597F90895B6
:10538000E1E0660F771F881FBB1F62177307840752
:10539000BA0720F0621B730B840BBA0BEE1F88F761
:1053A000E095089504D06894B1117AC1089546D16A
:1053B00088F09F5790F0B92F9927B751A0F0D1F0FE
:1053C000660F771F881F991F1AF0BA95C9F712C088
:1053D000B13081F064D1B1E0089561C1672F782FB9
:1053E0008827B85F39F0B93FCCF3869577956795F4
:1053F000B395D9F73EF490958095709561957F4F60
:105400008F4F9F4F0895E89409C097FB3EF4909505
:105410008095709561957F4F8F4F9F4F9923A9F08D
:10542000F92F96E9BB279395F6958795779567951C
:10543000B795F111F8CFFAF4BB0F11F460FF1BC060
:105440006F5F7F4F8F4F9F4F16C0882311F096E9F3
:1054500011C0772321F09EE8872F762F05C06623A1
:1054600071F096E8862F70E060E02AF09A95660F5A
:10547000771F881FDAF7880F9695879597F9089513
:10548000F7D080F09F3740F491110EF009C160E031
:1054900070E080E89FEB089526F41B16611D711DD6
:1054A000811D79C093C0A3D018F011F0A7D038F4B3
:1054B0009BC0F6C0E92FBAD0B0F35523C9F3E7FB80
:1054C0006217730784079507A8F199F3E92FFF275F
:1054D00088232AF03197660F771F881FDAF7952FF8
:1054E0005527442332F091505040220F331F441F60
:1054F000D2F7BB27E91BF50B621B730B840BB109B9
:10550000C1F222F4620F731F841FB11D31972AF07C
:10551000660F771F881FBB1FEFCF915050405AF086
:1055200041F0882332F0660F771F881F915050405A
:10553000C1F793954BC08695779567959F5FD9F78F
:10554000F8CF990F0008550FAA0BE0E8FEEF1616EA
:105550001706E807F907C0F012161306E407F50767
:1055600098F0621B730B840B950B39F40A2661F0DB
:10557000232B242B252B21F408950A2609F4A1407E
:10558000A6958FEF811D811D089597F99F6780E88B
:1055900070E060E00895882371F4772321F098503B
:1055A000872B762F07C0662311F499270DC09051E1
:1055B000862B70E060E02AF09A95660F771F881FAF
:1055C000DAF7880F9695879597F908959F3F31F000
:1055D000915020F4879577956795B795880F911D21
:1055E0009695879597F908959FEF80EC089500248C
:1055F0000A941616170618060906089500240A9438
:1056000012161306140605060895092E0394000CBD
:1056100011F4882352F0BB0F40F4BF2B11F460FF4C
:1056200004C06F5F7F4F8F4F9F4F089557FD905875
:10563000440F551F59F05F3F71F04795880F97FB56
:10564000991F61F09F3F79F0879508951216130610
:105650001406551FF2CF4695F1DF08C0161617063F
:105660001806991FF1CF8695710561050894089574
:10567000E5DFA0F0BEE7B91788F4BB279F3860F4D8
:105680001616B11D672F782F8827985FF7CF86955C
:1056900077956795B11D93959639C8F30895E89469
:1056A000BB2766277727CB0197F908954ADF08F4CF
:1056B0008FEF08950BD0A9CF9ADF28F09FDF18F065
:1056C000952309F062CF90CF1124EACFAFDFA0F38A
:1056D000959FD1F3950F50E0551F629FF001729F87
:1056E000BB27F00DB11D639FAA27F00DB11DAA1FA6
:1056F000649F6627B00DA11D661F829F2227B00DF3
:10570000A11D621F739FB00DA11D621F839FA00D7D
:10571000611D221F749F3327A00D611D231F849FCD
:10572000600D211D822F762F6A2F11249F57504024
:105730008AF0E1F088234AF0EE0FFF1FBB1F661FBF
:10574000771F881F91505040A9F79E3F510570F078
:105750001CCFA6CF5F3FECF3983EDCF386957795A0
:105760006795B795F795E7959F5FC1F7FE2B880F73
:10577000911D9695879597F908951F920F920FB6F0
:105780000F9211242F933F938F939F93AF93BF93C7
:1057900080910B0590910C05A0910D05B0910E051F
:1057A00030910A0523E0230F2D3758F50196A11DEE
:1057B000B11D20930A0580930B0590930C05A093CF
:1057C0000D05B0930E0580910F0590911005A091E5
:1057D0001105B09112050196A11DB11D80930F0511
:1057E00090931005A0931105B0931205BF91AF914E
:1057F0009F918F913F912F910F900FBE0F901F900F
:10580000189526E8230F0296A11DB11DD2CF3FB7F0
:10581000F89480910F0590911005A0911105B09119
:10582000120526B5A89B05C02F3F19F00196A11DB2
:10583000B11D3FBFBA2FA92F982F8827BC01CD01DA
:10584000620F711D811D911D42E0660F771F881F39
:10585000991F4A95D1F708958F929F92AF92BF9268
:10586000CF92DF92EF92FF926B017C01D0DF4B0170
:105870005C01C114D104E104F104E1F00E9422357D
:10588000C6DF681979098A099B09683E734081055A
:10589000910578F321E0C21AD108E108F10888EEF9
:1058A000880E83E0981EA11CB11CC114D104E10430
:1058B000F10431F7FF90EF90DF90CF90BF90AF9061
:1058C0009F908F900895789484B5826084BD84B54C
:1058D000816084BD85B5826085BD85B5816085BDEB
:1058E000EEE6F0E0808181608083E1E8F0E0108204
:1058F000808182608083808181608083E0E8F0E045
:10590000808181608083E1E9F0E080818260808332
:10591000808181608083E0E9F0E080818160808324
:10592000E1ECF0E08081846080838081826080830C
:10593000808181608083E3ECF0E0808181608083FE
:10594000E0ECF0E0808182608083E2ECF0E0808136
:1059500081608083EAE7F0E08081846080838081D9
:105960008260808380818160808380818068808381
:105970000895823108F08251E82FF0E0E455FF4F9E
:10598000E49190917B008E2F880F880F80729F7D0D
:10599000892B80937B008091690120E4829FC00164
:1059A0001124E770E82BE0937C0080917A008064FA
:1059B00080937A0080917A0086FDFCCF80917800F8
:1059C0009091790008951F93CF93DF93182FEB01E7
:1059D00061E0E6D0209731F460E0812FDF91CF9134
:1059E0001F911AC1CF3FD10511F461E0F6CFE12F2D
:1059F000F0E0E854FF4FE491E150EF3008F07FC051
:105A0000F0E0EB5FF24D0C940036142D1C2D212D8F
:105A10002B2D352D7F2D7F2D7F2D3F2D492D532D66
:105A20005D2D6A2D7F2D722D84B5806884BDC7BD24
:105A3000DF91CF911F91089584B5806284BDC8BD68
:105A4000F7CF80918000806880938000D093890098
:105A5000C0938800EDCF80918000806280938000A9
:105A6000D0938B00C0938A00E3CF80918000886040
:105A700080938000D0938D00C0938C00D9CF80910B
:105A80009000806880939000D0939900C093980014
:105A9000CFCF80919000806280939000D0939B0044
:105AA000C0939A00C5CF8091900088608093900049
:105AB000D0939D00C0939C00BBCF8091C0008068B4
:105AC0008093C0008091C0008F7B8093C000C09302
:105AD000CF00AECF8091C00080628093C000C093A1
